{
  "contractName": "ERC165",
  "abi": [
    {
      "inputs": [],
      "stateMutability": "nonpayable",
      "type": "constructor"
    },
    {
      "inputs": [
        {
          "internalType": "bytes4",
          "name": "interfaceID",
          "type": "bytes4"
        }
      ],
      "name": "supportsInterface",
      "outputs": [
        {
          "internalType": "bool",
          "name": "",
          "type": "bool"
        }
      ],
      "stateMutability": "view",
      "type": "function"
    }
  ],
  "bytecode": "0x608060405234801561001057600080fd5b5061003a7f01ffc9a7a5cef8baa21ed3c5c0d7e23accb804b619e9333b597f47a0d84076e261003f565b6100ce565b6001600160e01b031980821614156100725760405162461bcd60e51b815260040161006990610097565b60405180910390fd5b6001600160e01b0319166000908152602081905260409020805460ff19166001179055565b60208082526019908201527f496e76616c696420696e74657266616365207265717565737400000000000000604082015260600190565b60dd806100dc6000396000f3fe6080604052348015600f57600080fd5b506004361060285760003560e01c806301ffc9a714602d575b600080fd5b603c6038366004606f565b6050565b60405160479190609c565b60405180910390f35b6001600160e01b03191660009081526020819052604090205460ff1690565b600060208284031215607f578081fd5b81356001600160e01b0319811681146095578182fd5b9392505050565b90151581526020019056fea2646970667358221220d2d106fc1b0f076ae328d9bcb2426eda850841f18a6435296e38a7618c6ec74764736f6c63430008000033",
  "immutableReferences": {},
  "source": "// SPDX-License-Identifier: MIT\r\npragma solidity ^0.8.0;\r\n\r\nimport './interfaces/IERC165.sol';\r\n\r\ncontract ERC165 is IERC165 {\r\n\r\n    mapping(bytes4 => bool) private _supportedInterfaces;\r\n\r\n    constructor() {\r\n        _registerInterface(bytes4(keccak256('supportsInterface(bytes4)')));\r\n    }\r\n\r\n    function supportsInterface(bytes4 interfaceID) external view override returns (bool) {\r\n        return _supportedInterfaces[interfaceID]; \r\n    }\r\n\r\n    function _registerInterface(bytes4 interfaceID) internal {\r\n        require(interfaceID != 0xffffffff, 'Invalid interface request');\r\n        _supportedInterfaces[interfaceID] = true;\r\n    }\r\n}",
  "sourcePath": "C:\\projects\\Blockchain\\NFTMarketplace\\nft-marketplace-starter-kit\\src\\contracts\\ERC165.sol",
  "compiler": {
    "name": "solc",
    "version": "0.8.0+commit.c7dfd78e.Emscripten.clang"
  },
  "schemaVersion": "3.4.7",
  "updatedAt": "2025-03-09T00:50:36.183Z",
  "devdoc": {
    "kind": "dev",
    "methods": {
      "supportsInterface(bytes4)": {
        "details": "Interface identification is specified in ERC-165. This function  uses less than 30,000 gas.",
        "params": {
          "interfaceID": "The interface identifier, as specified in ERC-165"
        },
        "returns": {
          "_0": "`true` if the contract implements `interfaceID` and  `interfaceID` is not 0xffffffff, `false` otherwise"
        }
      }
    },
    "version": 1
  },
  "userdoc": {
    "kind": "user",
    "methods": {
      "supportsInterface(bytes4)": {
        "notice": "Query if a contract implements an interface"
      }
    },
    "version": 1
  }
}