{
  "contractName": "ERC721Connector",
  "abi": [
    {
      "inputs": [
        {
          "internalType": "string",
          "name": "name",
          "type": "string"
        },
        {
          "internalType": "string",
          "name": "symbol",
          "type": "string"
        }
      ],
      "stateMutability": "nonpayable",
      "type": "constructor"
    },
    {
      "anonymous": false,
      "inputs": [
        {
          "indexed": true,
          "internalType": "address",
          "name": "from",
          "type": "address"
        },
        {
          "indexed": true,
          "internalType": "address",
          "name": "to",
          "type": "address"
        },
        {
          "indexed": true,
          "internalType": "uint256",
          "name": "tokenId",
          "type": "uint256"
        }
      ],
      "name": "Transfer",
      "type": "event"
    },
    {
      "inputs": [
        {
          "internalType": "address",
          "name": "_owner",
          "type": "address"
        }
      ],
      "name": "balanceOf",
      "outputs": [
        {
          "internalType": "uint256",
          "name": "",
          "type": "uint256"
        }
      ],
      "stateMutability": "view",
      "type": "function"
    },
    {
      "inputs": [],
      "name": "name",
      "outputs": [
        {
          "internalType": "string",
          "name": "",
          "type": "string"
        }
      ],
      "stateMutability": "view",
      "type": "function"
    },
    {
      "inputs": [],
      "name": "symbol",
      "outputs": [
        {
          "internalType": "string",
          "name": "",
          "type": "string"
        }
      ],
      "stateMutability": "view",
      "type": "function"
    },
    {
      "inputs": [
        {
          "internalType": "uint256",
          "name": "_tokenId",
          "type": "uint256"
        }
      ],
      "name": "tokenOf",
      "outputs": [
        {
          "internalType": "address",
          "name": "",
          "type": "address"
        }
      ],
      "stateMutability": "view",
      "type": "function"
    }
  ],
  "bytecode": "0x608060405234801561001057600080fd5b506040516105e33803806105e383398101604081905261002f9161019d565b815182908290610046906000906020850190610064565b50805161005a906001906020840190610064565b505050505061024e565b828054610070906101fd565b90600052602060002090601f01602090048101928261009257600085556100d8565b82601f106100ab57805160ff19168380011785556100d8565b828001600101855582156100d8579182015b828111156100d85782518255916020019190600101906100bd565b506100e49291506100e8565b5090565b5b808211156100e457600081556001016100e9565b600082601f83011261010d578081fd5b81516001600160401b038082111561012757610127610238565b6040516020601f8401601f191682018101838111838210171561014c5761014c610238565b6040528382528584018101871015610162578485fd5b8492505b838310156101835785830181015182840182015291820191610166565b8383111561019357848185840101525b5095945050505050565b600080604083850312156101af578182fd5b82516001600160401b03808211156101c5578384fd5b6101d1868387016100fd565b935060208501519150808211156101e6578283fd5b506101f3858286016100fd565b9150509250929050565b60028104600182168061021157607f821691505b6020821081141561023257634e487b7160e01b600052602260045260246000fd5b50919050565b634e487b7160e01b600052604160045260246000fd5b6103868061025d6000396000f3fe608060405234801561001057600080fd5b506004361061004c5760003560e01c806306fdde031461005157806370a082311461006f57806395d89b411461008f578063ea78803f14610097575b600080fd5b6100596100b7565b604051610066919061023a565b60405180910390f35b61008261007d3660046101e0565b610149565b604051610066919061030c565b610059610196565b6100aa6100a536600461020e565b6101a5565b6040516100669190610226565b6060600080546100c690610315565b80601f01602080910402602001604051908101604052809291908181526020018280546100f290610315565b801561013f5780601f106101145761010080835404028352916020019161013f565b820191906000526020600020905b81548152906001019060200180831161012257829003601f168201915b5050505050905090565b60006001600160a01b03821661017a5760405162461bcd60e51b8152600401610171906102c4565b60405180910390fd5b506001600160a01b031660009081526003602052604090205490565b6060600180546100c690610315565b6000818152600260205260408120546001600160a01b0316806101da5760405162461bcd60e51b81526004016101719061028d565b92915050565b6000602082840312156101f1578081fd5b81356001600160a01b0381168114610207578182fd5b9392505050565b60006020828403121561021f578081fd5b5035919050565b6001600160a01b0391909116815260200190565b6000602080835283518082850152825b818110156102665785810183015185820160400152820161024a565b818111156102775783604083870101525b50601f01601f1916929092016040019392505050565b60208082526017908201527f546f6b656e20496420646f65736e277420657869737473000000000000000000604082015260600190565b60208082526028908201527f556e61626c6520746f2066696e6420612062616c616e6365206f66207a65726f604082015267206164647265737360c01b606082015260800190565b90815260200190565b60028104600182168061032957607f821691505b6020821081141561034a57634e487b7160e01b600052602260045260246000fd5b5091905056fea264697066735822122008495122d43a4e186a2b67a08b6ea7672a688ffe3676d652d41e0f76ed67403664736f6c63430008000033",
  "immutableReferences": {},
  "source": "// SPDX-License-Identifier: MIT\r\npragma solidity ^0.8.0;\r\n\r\nimport './ERC721Metadata.sol';\r\nimport './ERC721.sol';\r\n\r\ncontract ERC721Connector is ERC721Metadata, ERC721 {\r\n\r\n    constructor(string memory name, string memory symbol) ERC721Metadata(name, symbol) {\r\n        \r\n    }\r\n}",
  "sourcePath": "C:\\projects\\Blockchain\\NFTMarketplace\\nft-marketplace-starter-kit\\src\\contracts\\ERC721Connector.sol",
  "compiler": {
    "name": "solc",
    "version": "0.8.0+commit.c7dfd78e.Emscripten.clang"
  },
  "schemaVersion": "3.4.16",
  "updatedAt": "2024-12-18T23:46:42.177Z",
  "devdoc": {
    "kind": "dev",
    "methods": {},
    "version": 1
  },
  "userdoc": {
    "kind": "user",
    "methods": {},
    "version": 1
  }
}