{
  "contractName": "ERC721Enumerable",
  "abi": [
    {
      "anonymous": false,
      "inputs": [
        {
          "indexed": true,
          "internalType": "address",
          "name": "from",
          "type": "address"
        },
        {
          "indexed": true,
          "internalType": "address",
          "name": "to",
          "type": "address"
        },
        {
          "indexed": true,
          "internalType": "uint256",
          "name": "tokenId",
          "type": "uint256"
        }
      ],
      "name": "Transfer",
      "type": "event"
    },
    {
      "inputs": [
        {
          "internalType": "address",
          "name": "_owner",
          "type": "address"
        }
      ],
      "name": "balanceOf",
      "outputs": [
        {
          "internalType": "uint256",
          "name": "",
          "type": "uint256"
        }
      ],
      "stateMutability": "view",
      "type": "function"
    },
    {
      "inputs": [
        {
          "internalType": "uint256",
          "name": "_tokenId",
          "type": "uint256"
        }
      ],
      "name": "ownerOf",
      "outputs": [
        {
          "internalType": "address",
          "name": "",
          "type": "address"
        }
      ],
      "stateMutability": "view",
      "type": "function"
    },
    {
      "inputs": [],
      "name": "totalSupply",
      "outputs": [
        {
          "internalType": "uint256",
          "name": "",
          "type": "uint256"
        }
      ],
      "stateMutability": "view",
      "type": "function"
    }
  ],
  "bytecode": "0x608060405234801561001057600080fd5b5061023d806100206000396000f3fe608060405234801561001057600080fd5b50600436106100415760003560e01c806318160ddd146100465780636352211e1461006457806370a0823114610084575b600080fd5b61004e610097565b60405161005b91906101fe565b60405180910390f35b610077610072366004610153565b61009d565b60405161005b919061016b565b61004e610092366004610125565b6100e1565b60025490565b6000818152602081905260408120546001600160a01b0316806100db5760405162461bcd60e51b81526004016100d29061017f565b60405180910390fd5b92915050565b60006001600160a01b0382166101095760405162461bcd60e51b81526004016100d2906101b6565b506001600160a01b031660009081526001602052604090205490565b600060208284031215610136578081fd5b81356001600160a01b038116811461014c578182fd5b9392505050565b600060208284031215610164578081fd5b5035919050565b6001600160a01b0391909116815260200190565b60208082526017908201527f546f6b656e20496420646f65736e277420657869737473000000000000000000604082015260600190565b60208082526028908201527f556e61626c6520746f2066696e6420612062616c616e6365206f66207a65726f604082015267206164647265737360c01b606082015260800190565b9081526020019056fea26469706673582212209d861749ab28bc7667eccea52250e45d4385ece9ff19aac43bdacde0c6d1cb0b64736f6c63430008000033",
  "immutableReferences": {},
  "source": "// SPDX-License-Identifier: MIT\r\npragma solidity ^0.8.0;\r\n\r\nimport './ERC721.sol';\r\n\r\ncontract ERC721Enumerable is ERC721 {\r\n\r\n    uint256[] private _allTokens;\r\n\r\n    // mapping from tokenId to position in _allTokens array\r\n    mapping(uint256 => uint256) private _allTokensIndex;\r\n    // mapping of owner to list of all owner token ids\r\n    mapping(address => uint256[]) private _ownedTokens; \r\n    // mapping from token ID index of the owner tokens list\r\n    mapping(uint256 => uint256) private _ownedTokensIndex;\r\n\r\n    \r\n    // function tokenOfOwnerByIndex(address _owner, uint256 _index) external view returns (uint256);\r\n\r\n    function _mint(address to, uint256 tokenId) internal override(ERC721) {\r\n        super._mint(to, tokenId);\r\n        // add tokens to the owner & add to tokens to our totalsupply - to allTokens\r\n        _addTokensToTotalSupply(tokenId);\r\n    }\r\n\r\n    function _addTokensToTotalSupply(uint256 tokenId) private {\r\n        _allTokens.push(tokenId);\r\n    }\r\n\r\n    function totalSupply() public view returns(uint256) {\r\n        return _allTokens.length;\r\n    }\r\n\r\n\r\n}\r\n",
  "sourcePath": "C:\\projects\\Blockchain\\NFTMarketplace\\nft-marketplace-starter-kit\\src\\contracts\\ERC721Enumerable.sol",
  "compiler": {
    "name": "solc",
    "version": "0.8.0+commit.c7dfd78e.Emscripten.clang"
  },
  "schemaVersion": "3.4.16",
  "updatedAt": "2024-12-19T23:52:51.031Z",
  "devdoc": {
    "kind": "dev",
    "methods": {},
    "version": 1
  },
  "userdoc": {
    "kind": "user",
    "methods": {},
    "version": 1
  }
}