{
  "contractName": "ERC721Connector",
  "abi": [
    {
      "inputs": [
        {
          "internalType": "string",
          "name": "name",
          "type": "string"
        },
        {
          "internalType": "string",
          "name": "symbol",
          "type": "string"
        }
      ],
      "stateMutability": "nonpayable",
      "type": "constructor"
    },
    {
      "inputs": [],
      "name": "name",
      "outputs": [
        {
          "internalType": "string",
          "name": "",
          "type": "string"
        }
      ],
      "stateMutability": "view",
      "type": "function"
    },
    {
      "inputs": [],
      "name": "symbol",
      "outputs": [
        {
          "internalType": "string",
          "name": "",
          "type": "string"
        }
      ],
      "stateMutability": "view",
      "type": "function"
    }
  ],
  "bytecode": "0x608060405234801561001057600080fd5b5060405161042338038061042383398101604081905261002f9161019d565b815182908290610046906000906020850190610064565b50805161005a906001906020840190610064565b505050505061024e565b828054610070906101fd565b90600052602060002090601f01602090048101928261009257600085556100d8565b82601f106100ab57805160ff19168380011785556100d8565b828001600101855582156100d8579182015b828111156100d85782518255916020019190600101906100bd565b506100e49291506100e8565b5090565b5b808211156100e457600081556001016100e9565b600082601f83011261010d578081fd5b81516001600160401b038082111561012757610127610238565b6040516020601f8401601f191682018101838111838210171561014c5761014c610238565b6040528382528584018101871015610162578485fd5b8492505b838310156101835785830181015182840182015291820191610166565b8383111561019357848185840101525b5095945050505050565b600080604083850312156101af578182fd5b82516001600160401b03808211156101c5578384fd5b6101d1868387016100fd565b935060208501519150808211156101e6578283fd5b506101f3858286016100fd565b9150509250929050565b60028104600182168061021157607f821691505b6020821081141561023257634e487b7160e01b600052602260045260246000fd5b50919050565b634e487b7160e01b600052604160045260246000fd5b6101c68061025d6000396000f3fe608060405234801561001057600080fd5b50600436106100365760003560e01c806306fdde031461003b57806395d89b4114610059575b600080fd5b610043610061565b6040516100509190610102565b60405180910390f35b6100436100f3565b60606000805461007090610155565b80601f016020809104026020016040519081016040528092919081815260200182805461009c90610155565b80156100e95780601f106100be576101008083540402835291602001916100e9565b820191906000526020600020905b8154815290600101906020018083116100cc57829003601f168201915b5050505050905090565b60606001805461007090610155565b6000602080835283518082850152825b8181101561012e57858101830151858201604001528201610112565b8181111561013f5783604083870101525b50601f01601f1916929092016040019392505050565b60028104600182168061016957607f821691505b6020821081141561018a57634e487b7160e01b600052602260045260246000fd5b5091905056fea2646970667358221220b014603d08e1546bff8f990cbb688621886f7069ebbbf8c329291fe12552036a64736f6c63430008000033",
  "immutableReferences": {},
  "source": "// SPDX-License-Identifier: MIT\r\npragma solidity ^0.8.0;\r\n\r\nimport './ERC721Metadata.sol';\r\n\r\ncontract ERC721Connector is ERC721Metadata {\r\n\r\n    constructor(string memory name, string memory symbol) ERC721Metadata(name, symbol) {\r\n        \r\n    }\r\n}",
  "sourcePath": "C:\\projects\\Blockchain\\NFTMarketplace\\nft-marketplace-starter-kit\\src\\contracts\\ERC721Connector.sol",
  "compiler": {
    "name": "solc",
    "version": "0.8.0+commit.c7dfd78e.Emscripten.clang"
  },
  "schemaVersion": "3.4.7",
  "updatedAt": "2024-12-17T15:21:16.015Z",
  "devdoc": {
    "kind": "dev",
    "methods": {},
    "version": 1
  },
  "userdoc": {
    "kind": "user",
    "methods": {},
    "version": 1
  }
}