{
  "contractName": "ERC721Connector",
  "abi": [
    {
      "inputs": [
        {
          "internalType": "string",
          "name": "name",
          "type": "string"
        },
        {
          "internalType": "string",
          "name": "symbol",
          "type": "string"
        }
      ],
      "stateMutability": "nonpayable",
      "type": "constructor"
    },
    {
      "anonymous": false,
      "inputs": [
        {
          "indexed": true,
          "internalType": "address",
          "name": "from",
          "type": "address"
        },
        {
          "indexed": true,
          "internalType": "address",
          "name": "to",
          "type": "address"
        },
        {
          "indexed": true,
          "internalType": "uint256",
          "name": "tokenId",
          "type": "uint256"
        }
      ],
      "name": "Transfer",
      "type": "event"
    },
    {
      "inputs": [
        {
          "internalType": "address",
          "name": "_owner",
          "type": "address"
        }
      ],
      "name": "balanceOf",
      "outputs": [
        {
          "internalType": "uint256",
          "name": "",
          "type": "uint256"
        }
      ],
      "stateMutability": "view",
      "type": "function"
    },
    {
      "inputs": [],
      "name": "name",
      "outputs": [
        {
          "internalType": "string",
          "name": "",
          "type": "string"
        }
      ],
      "stateMutability": "view",
      "type": "function"
    },
    {
      "inputs": [
        {
          "internalType": "uint256",
          "name": "_tokenId",
          "type": "uint256"
        }
      ],
      "name": "ownerOf",
      "outputs": [
        {
          "internalType": "address",
          "name": "",
          "type": "address"
        }
      ],
      "stateMutability": "view",
      "type": "function"
    },
    {
      "inputs": [],
      "name": "symbol",
      "outputs": [
        {
          "internalType": "string",
          "name": "",
          "type": "string"
        }
      ],
      "stateMutability": "view",
      "type": "function"
    },
    {
      "inputs": [
        {
          "internalType": "uint256",
          "name": "index",
          "type": "uint256"
        }
      ],
      "name": "tokenByIndex",
      "outputs": [
        {
          "internalType": "uint256",
          "name": "",
          "type": "uint256"
        }
      ],
      "stateMutability": "view",
      "type": "function"
    },
    {
      "inputs": [
        {
          "internalType": "address",
          "name": "owner",
          "type": "address"
        },
        {
          "internalType": "uint256",
          "name": "index",
          "type": "uint256"
        }
      ],
      "name": "tokenOfOwnerByIndex",
      "outputs": [
        {
          "internalType": "uint256",
          "name": "",
          "type": "uint256"
        }
      ],
      "stateMutability": "view",
      "type": "function"
    },
    {
      "inputs": [],
      "name": "totalSupply",
      "outputs": [
        {
          "internalType": "uint256",
          "name": "",
          "type": "uint256"
        }
      ],
      "stateMutability": "view",
      "type": "function"
    },
    {
      "inputs": [
        {
          "internalType": "address",
          "name": "_from",
          "type": "address"
        },
        {
          "internalType": "address",
          "name": "_to",
          "type": "address"
        },
        {
          "internalType": "uint256",
          "name": "_tokenId",
          "type": "uint256"
        }
      ],
      "name": "transferFrom",
      "outputs": [],
      "stateMutability": "nonpayable",
      "type": "function"
    }
  ],
  "bytecode": "0x60806040523480156200001157600080fd5b5060405162000a4b38038062000a4b8339810160408190526200003491620001bf565b8151829082906200004d9060009060208501906200006e565b508051620000639060019060208401906200006e565b505050505062000279565b8280546200007c9062000226565b90600052602060002090601f016020900481019282620000a05760008555620000eb565b82601f10620000bb57805160ff1916838001178555620000eb565b82800160010185558215620000eb579182015b82811115620000eb578251825591602001919060010190620000ce565b50620000f9929150620000fd565b5090565b5b80821115620000f95760008155600101620000fe565b600082601f83011262000125578081fd5b81516001600160401b038082111562000142576200014262000263565b6040516020601f8401601f19168201810183811183821017156200016a576200016a62000263565b604052838252858401810187101562000181578485fd5b8492505b83831015620001a4578583018101518284018201529182019162000185565b83831115620001b557848185840101525b5095945050505050565b60008060408385031215620001d2578182fd5b82516001600160401b0380821115620001e9578384fd5b620001f78683870162000114565b935060208501519150808211156200020d578283fd5b506200021c8582860162000114565b9150509250929050565b6002810460018216806200023b57607f821691505b602082108114156200025d57634e487b7160e01b600052602260045260246000fd5b50919050565b634e487b7160e01b600052604160045260246000fd5b6107c280620002896000396000f3fe608060405234801561001057600080fd5b50600436106100885760003560e01c80634f6ccce71161005b5780634f6ccce7146100e85780636352211e146100fb57806370a082311461011b57806395d89b411461012e57610088565b806306fdde031461008d57806318160ddd146100ab57806323b872dd146100c05780632f745c59146100d5575b600080fd5b610095610136565b6040516100a29190610524565b60405180910390f35b6100b36101c8565b6040516100a29190610703565b6100d36100ce366004610494565b6101ce565b005b6100b36100e33660046104cf565b6101de565b6100b36100f63660046104f8565b61025b565b61010e6101093660046104f8565b6102b7565b6040516100a29190610510565b6100b3610129366004610473565b6102f2565b610095610336565b6060600080546101459061073b565b80601f01602080910402602001604051908101604052809291908181526020018280546101719061073b565b80156101be5780601f10610193576101008083540402835291602001916101be565b820191906000526020600020905b8154815290600101906020018083116101a157829003601f168201915b5050505050905090565b60055490565b6101d9838383610345565b505050565b60006101e9836102f2565b82106102105760405162461bcd60e51b8152600401610207906105e5565b60405180910390fd5b6001600160a01b038316600090815260076020526040902080548390811061024857634e487b7160e01b600052603260045260246000fd5b9060005260206000200154905092915050565b60006102656101c8565b82106102835760405162461bcd60e51b8152600401610207906105ae565b600582815481106102a457634e487b7160e01b600052603260045260246000fd5b906000526020600020015490505b919050565b6000818152600260205260408120546001600160a01b0316806102ec5760405162461bcd60e51b815260040161020790610577565b92915050565b60006001600160a01b03821661031a5760405162461bcd60e51b815260040161020790610667565b506001600160a01b031660009081526003602052604090205490565b6060600180546101459061073b565b6001600160a01b03821661036b5760405162461bcd60e51b81526004016102079061061c565b826001600160a01b031661037e826102b7565b6001600160a01b0316146103a45760405162461bcd60e51b8152600401610207906106af565b6001600160a01b03831660009081526003602052604081208054600192906103cd908490610724565b90915550506001600160a01b03821660009081526003602052604081208054600192906103fb90849061070c565b909155505060008181526002602052604080822080546001600160a01b0319166001600160a01b0386811691821790925591518493918716917fddf252ad1be2c89b69c2b068fc378daa952ba7f163c4a11628f55a4df523b3ef91a4505050565b80356001600160a01b03811681146102b257600080fd5b600060208284031215610484578081fd5b61048d8261045c565b9392505050565b6000806000606084860312156104a8578182fd5b6104b18461045c565b92506104bf6020850161045c565b9150604084013590509250925092565b600080604083850312156104e1578182fd5b6104ea8361045c565b946020939093013593505050565b600060208284031215610509578081fd5b5035919050565b6001600160a01b0391909116815260200190565b6000602080835283518082850152825b8181101561055057858101830151858201604001528201610534565b818111156105615783604083870101525b50601f01601f1916929092016040019392505050565b60208082526017908201527f546f6b656e20496420646f65736e277420657869737473000000000000000000604082015260600190565b6020808252601e908201527f676c6f62616c20696e646578206973206f7574206f6620626f756e6473210000604082015260600190565b6020808252601d908201527f6f776e657220696e646578206973206f7574206f6620626f756e647321000000604082015260600190565b6020808252602b908201527f4572726f72202d20455243373231205472616e7366657220746f20746865207a60408201526a65726f206164647265737360a81b606082015260800190565b60208082526028908201527f556e61626c6520746f2066696e6420612062616c616e6365206f66207a65726f604082015267206164647265737360c01b606082015260800190565b60208082526034908201527f547279696e6720746f207472616e73666572206120746f6b656e20746865206160408201527364647265737320646f6573206e6f74206f776e2160601b606082015260800190565b90815260200190565b6000821982111561071f5761071f610776565b500190565b60008282101561073657610736610776565b500390565b60028104600182168061074f57607f821691505b6020821081141561077057634e487b7160e01b600052602260045260246000fd5b50919050565b634e487b7160e01b600052601160045260246000fdfea264697066735822122073195a143e89719c1cd4fe8e9c415825f40ac044af40afb99e363fb8ba5e612264736f6c63430008000033",
  "immutableReferences": {},
  "source": "// SPDX-License-Identifier: MIT\r\npragma solidity ^0.8.0;\r\n\r\nimport './ERC721Metadata.sol';\r\nimport './ERC721Enumerable.sol';\r\n\r\ncontract ERC721Connector is ERC721Metadata, ERC721Enumerable {\r\n\r\n    constructor(string memory name, string memory symbol) ERC721Metadata(name, symbol) {\r\n        \r\n    }\r\n}",
  "sourcePath": "C:\\projects\\Blockchain\\NFTMarketplace\\nft-marketplace-starter-kit\\src\\contracts\\ERC721Connector.sol",
  "compiler": {
    "name": "solc",
    "version": "0.8.0+commit.c7dfd78e.Emscripten.clang"
  },
  "schemaVersion": "3.4.16",
  "updatedAt": "2025-02-07T07:51:36.391Z",
  "devdoc": {
    "kind": "dev",
    "methods": {},
    "version": 1
  },
  "userdoc": {
    "kind": "user",
    "methods": {},
    "version": 1
  }
}