{
  "contractName": "ERC721Connector",
  "abi": [
    {
      "inputs": [
        {
          "internalType": "string",
          "name": "name",
          "type": "string"
        },
        {
          "internalType": "string",
          "name": "symbol",
          "type": "string"
        }
      ],
      "stateMutability": "nonpayable",
      "type": "constructor"
    },
    {
      "anonymous": false,
      "inputs": [
        {
          "indexed": true,
          "internalType": "address",
          "name": "from",
          "type": "address"
        },
        {
          "indexed": true,
          "internalType": "address",
          "name": "to",
          "type": "address"
        },
        {
          "indexed": true,
          "internalType": "uint256",
          "name": "tokenId",
          "type": "uint256"
        }
      ],
      "name": "Transfer",
      "type": "event"
    },
    {
      "inputs": [
        {
          "internalType": "address",
          "name": "_owner",
          "type": "address"
        }
      ],
      "name": "balanceOf",
      "outputs": [
        {
          "internalType": "uint256",
          "name": "",
          "type": "uint256"
        }
      ],
      "stateMutability": "view",
      "type": "function"
    },
    {
      "inputs": [],
      "name": "name",
      "outputs": [
        {
          "internalType": "string",
          "name": "",
          "type": "string"
        }
      ],
      "stateMutability": "view",
      "type": "function"
    },
    {
      "inputs": [
        {
          "internalType": "uint256",
          "name": "_tokenId",
          "type": "uint256"
        }
      ],
      "name": "ownerOf",
      "outputs": [
        {
          "internalType": "address",
          "name": "",
          "type": "address"
        }
      ],
      "stateMutability": "view",
      "type": "function"
    },
    {
      "inputs": [],
      "name": "symbol",
      "outputs": [
        {
          "internalType": "string",
          "name": "",
          "type": "string"
        }
      ],
      "stateMutability": "view",
      "type": "function"
    },
    {
      "inputs": [],
      "name": "totalSupply",
      "outputs": [
        {
          "internalType": "uint256",
          "name": "",
          "type": "uint256"
        }
      ],
      "stateMutability": "view",
      "type": "function"
    }
  ],
  "bytecode": "0x608060405234801561001057600080fd5b506040516105fc3803806105fc83398101604081905261002f9161019d565b815182908290610046906000906020850190610064565b50805161005a906001906020840190610064565b505050505061024e565b828054610070906101fd565b90600052602060002090601f01602090048101928261009257600085556100d8565b82601f106100ab57805160ff19168380011785556100d8565b828001600101855582156100d8579182015b828111156100d85782518255916020019190600101906100bd565b506100e49291506100e8565b5090565b5b808211156100e457600081556001016100e9565b600082601f83011261010d578081fd5b81516001600160401b038082111561012757610127610238565b6040516020601f8401601f191682018101838111838210171561014c5761014c610238565b6040528382528584018101871015610162578485fd5b8492505b838310156101835785830181015182840182015291820191610166565b8383111561019357848185840101525b5095945050505050565b600080604083850312156101af578182fd5b82516001600160401b03808211156101c5578384fd5b6101d1868387016100fd565b935060208501519150808211156101e6578283fd5b506101f3858286016100fd565b9150509250929050565b60028104600182168061021157607f821691505b6020821081141561023257634e487b7160e01b600052602260045260246000fd5b50919050565b634e487b7160e01b600052604160045260246000fd5b61039f8061025d6000396000f3fe608060405234801561001057600080fd5b50600436106100575760003560e01c806306fdde031461005c57806318160ddd1461007a5780636352211e1461008f57806370a08231146100af57806395d89b41146100c2575b600080fd5b6100646100ca565b6040516100719190610253565b60405180910390f35b61008261015c565b6040516100719190610325565b6100a261009d366004610227565b610162565b604051610071919061023f565b6100826100bd3660046101f9565b6101a6565b6100646101ea565b6060600080546100d99061032e565b80601f01602080910402602001604051908101604052809291908181526020018280546101059061032e565b80156101525780601f1061012757610100808354040283529160200191610152565b820191906000526020600020905b81548152906001019060200180831161013557829003601f168201915b5050505050905090565b60045490565b6000818152600260205260408120546001600160a01b0316806101a05760405162461bcd60e51b8152600401610197906102a6565b60405180910390fd5b92915050565b60006001600160a01b0382166101ce5760405162461bcd60e51b8152600401610197906102dd565b506001600160a01b031660009081526003602052604090205490565b6060600180546100d99061032e565b60006020828403121561020a578081fd5b81356001600160a01b0381168114610220578182fd5b9392505050565b600060208284031215610238578081fd5b5035919050565b6001600160a01b0391909116815260200190565b6000602080835283518082850152825b8181101561027f57858101830151858201604001528201610263565b818111156102905783604083870101525b50601f01601f1916929092016040019392505050565b60208082526017908201527f546f6b656e20496420646f65736e277420657869737473000000000000000000604082015260600190565b60208082526028908201527f556e61626c6520746f2066696e6420612062616c616e6365206f66207a65726f604082015267206164647265737360c01b606082015260800190565b90815260200190565b60028104600182168061034257607f821691505b6020821081141561036357634e487b7160e01b600052602260045260246000fd5b5091905056fea264697066735822122030494d1f0a374fe93a814bc8ddd9a90516298b0d3245e133e00b584ceaa0d9c464736f6c63430008000033",
  "immutableReferences": {},
  "source": "// SPDX-License-Identifier: MIT\r\npragma solidity ^0.8.0;\r\n\r\nimport './ERC721Metadata.sol';\r\nimport './ERC721Enumerable.sol';\r\n\r\ncontract ERC721Connector is ERC721Metadata, ERC721Enumerable {\r\n\r\n    constructor(string memory name, string memory symbol) ERC721Metadata(name, symbol) {\r\n        \r\n    }\r\n}",
  "sourcePath": "C:\\projects\\Blockchain\\NFTMarketplace\\nft-marketplace-starter-kit\\src\\contracts\\ERC721Connector.sol",
  "compiler": {
    "name": "solc",
    "version": "0.8.0+commit.c7dfd78e.Emscripten.clang"
  },
  "schemaVersion": "3.4.16",
  "updatedAt": "2024-12-19T23:52:51.028Z",
  "devdoc": {
    "kind": "dev",
    "methods": {},
    "version": 1
  },
  "userdoc": {
    "kind": "user",
    "methods": {},
    "version": 1
  }
}