{
  "contractName": "ERC721Connector",
  "abi": [
    {
      "inputs": [
        {
          "internalType": "string",
          "name": "name",
          "type": "string"
        },
        {
          "internalType": "string",
          "name": "symbol",
          "type": "string"
        }
      ],
      "stateMutability": "nonpayable",
      "type": "constructor"
    },
    {
      "anonymous": false,
      "inputs": [
        {
          "indexed": true,
          "internalType": "address",
          "name": "from",
          "type": "address"
        },
        {
          "indexed": true,
          "internalType": "address",
          "name": "to",
          "type": "address"
        },
        {
          "indexed": true,
          "internalType": "uint256",
          "name": "tokenId",
          "type": "uint256"
        }
      ],
      "name": "Transfer",
      "type": "event"
    },
    {
      "inputs": [
        {
          "internalType": "address",
          "name": "_owner",
          "type": "address"
        }
      ],
      "name": "balanceOf",
      "outputs": [
        {
          "internalType": "uint256",
          "name": "",
          "type": "uint256"
        }
      ],
      "stateMutability": "view",
      "type": "function"
    },
    {
      "inputs": [],
      "name": "name",
      "outputs": [
        {
          "internalType": "string",
          "name": "",
          "type": "string"
        }
      ],
      "stateMutability": "view",
      "type": "function"
    },
    {
      "inputs": [
        {
          "internalType": "uint256",
          "name": "_tokenId",
          "type": "uint256"
        }
      ],
      "name": "ownerOf",
      "outputs": [
        {
          "internalType": "address",
          "name": "",
          "type": "address"
        }
      ],
      "stateMutability": "view",
      "type": "function"
    },
    {
      "inputs": [],
      "name": "symbol",
      "outputs": [
        {
          "internalType": "string",
          "name": "",
          "type": "string"
        }
      ],
      "stateMutability": "view",
      "type": "function"
    },
    {
      "inputs": [
        {
          "internalType": "uint256",
          "name": "index",
          "type": "uint256"
        }
      ],
      "name": "tokenByIndex",
      "outputs": [
        {
          "internalType": "uint256",
          "name": "",
          "type": "uint256"
        }
      ],
      "stateMutability": "view",
      "type": "function"
    },
    {
      "inputs": [
        {
          "internalType": "address",
          "name": "owner",
          "type": "address"
        },
        {
          "internalType": "uint256",
          "name": "index",
          "type": "uint256"
        }
      ],
      "name": "tokenOfOwnerByIndex",
      "outputs": [
        {
          "internalType": "uint256",
          "name": "",
          "type": "uint256"
        }
      ],
      "stateMutability": "view",
      "type": "function"
    },
    {
      "inputs": [],
      "name": "totalSupply",
      "outputs": [
        {
          "internalType": "uint256",
          "name": "",
          "type": "uint256"
        }
      ],
      "stateMutability": "view",
      "type": "function"
    }
  ],
  "bytecode": "0x608060405234801561001057600080fd5b506040516107b93803806107b983398101604081905261002f9161019d565b815182908290610046906000906020850190610064565b50805161005a906001906020840190610064565b505050505061024e565b828054610070906101fd565b90600052602060002090601f01602090048101928261009257600085556100d8565b82601f106100ab57805160ff19168380011785556100d8565b828001600101855582156100d8579182015b828111156100d85782518255916020019190600101906100bd565b506100e49291506100e8565b5090565b5b808211156100e457600081556001016100e9565b600082601f83011261010d578081fd5b81516001600160401b038082111561012757610127610238565b6040516020601f8401601f191682018101838111838210171561014c5761014c610238565b6040528382528584018101871015610162578485fd5b8492505b838310156101835785830181015182840182015291820191610166565b8383111561019357848185840101525b5095945050505050565b600080604083850312156101af578182fd5b82516001600160401b03808211156101c5578384fd5b6101d1868387016100fd565b935060208501519150808211156101e6578283fd5b506101f3858286016100fd565b9150509250929050565b60028104600182168061021157607f821691505b6020821081141561023257634e487b7160e01b600052602260045260246000fd5b50919050565b634e487b7160e01b600052604160045260246000fd5b61055c8061025d6000396000f3fe608060405234801561001057600080fd5b506004361061007d5760003560e01c80634f6ccce71161005b5780634f6ccce7146100c85780636352211e146100db57806370a08231146100fb57806395d89b411461010e5761007d565b806306fdde031461008257806318160ddd146100a05780632f745c59146100b5575b600080fd5b61008a610116565b60405161009791906103a2565b60405180910390f35b6100a86101a8565b60405161009791906104e2565b6100a86100c336600461034d565b6101ae565b6100a86100d6366004610376565b61022b565b6100ee6100e9366004610376565b610287565b604051610097919061038e565b6100a861010936600461032c565b6102c2565b61008a610306565b606060008054610125906104eb565b80601f0160208091040260200160405190810160405280929190818152602001828054610151906104eb565b801561019e5780601f106101735761010080835404028352916020019161019e565b820191906000526020600020905b81548152906001019060200180831161018157829003601f168201915b5050505050905090565b60045490565b60006101b9836102c2565b82106101e05760405162461bcd60e51b81526004016101d790610463565b60405180910390fd5b6001600160a01b038316600090815260066020526040902080548390811061021857634e487b7160e01b600052603260045260246000fd5b9060005260206000200154905092915050565b60006102356101a8565b82106102535760405162461bcd60e51b81526004016101d79061042c565b6004828154811061027457634e487b7160e01b600052603260045260246000fd5b906000526020600020015490505b919050565b6000818152600260205260408120546001600160a01b0316806102bc5760405162461bcd60e51b81526004016101d7906103f5565b92915050565b60006001600160a01b0382166102ea5760405162461bcd60e51b81526004016101d79061049a565b506001600160a01b031660009081526003602052604090205490565b606060018054610125906104eb565b80356001600160a01b038116811461028257600080fd5b60006020828403121561033d578081fd5b61034682610315565b9392505050565b6000806040838503121561035f578081fd5b61036883610315565b946020939093013593505050565b600060208284031215610387578081fd5b5035919050565b6001600160a01b0391909116815260200190565b6000602080835283518082850152825b818110156103ce578581018301518582016040015282016103b2565b818111156103df5783604083870101525b50601f01601f1916929092016040019392505050565b60208082526017908201527f546f6b656e20496420646f65736e277420657869737473000000000000000000604082015260600190565b6020808252601e908201527f676c6f62616c20696e646578206973206f7574206f6620626f756e6473210000604082015260600190565b6020808252601d908201527f6f776e657220696e646578206973206f7574206f6620626f756e647321000000604082015260600190565b60208082526028908201527f556e61626c6520746f2066696e6420612062616c616e6365206f66207a65726f604082015267206164647265737360c01b606082015260800190565b90815260200190565b6002810460018216806104ff57607f821691505b6020821081141561052057634e487b7160e01b600052602260045260246000fd5b5091905056fea26469706673582212204c284fc1884aa98a53b170292b7ff3f41b33e82284e1a46d409298ffa235058564736f6c63430008000033",
  "immutableReferences": {},
  "source": "// SPDX-License-Identifier: MIT\r\npragma solidity ^0.8.0;\r\n\r\nimport './ERC721Metadata.sol';\r\nimport './ERC721Enumerable.sol';\r\n\r\ncontract ERC721Connector is ERC721Metadata, ERC721Enumerable {\r\n\r\n    constructor(string memory name, string memory symbol) ERC721Metadata(name, symbol) {\r\n        \r\n    }\r\n}",
  "sourcePath": "C:\\projects\\Blockchain\\NFTMarketplace\\nft-marketplace-starter-kit\\src\\contracts\\ERC721Connector.sol",
  "compiler": {
    "name": "solc",
    "version": "0.8.0+commit.c7dfd78e.Emscripten.clang"
  },
  "schemaVersion": "3.4.16",
  "updatedAt": "2025-02-07T05:34:28.303Z",
  "devdoc": {
    "kind": "dev",
    "methods": {},
    "version": 1
  },
  "userdoc": {
    "kind": "user",
    "methods": {},
    "version": 1
  }
}