{
  "contractName": "ERC721",
  "abi": [
    {
      "anonymous": false,
      "inputs": [
        {
          "indexed": true,
          "internalType": "address",
          "name": "from",
          "type": "address"
        },
        {
          "indexed": true,
          "internalType": "address",
          "name": "to",
          "type": "address"
        },
        {
          "indexed": true,
          "internalType": "uint256",
          "name": "tokenId",
          "type": "uint256"
        }
      ],
      "name": "Transfer",
      "type": "event"
    },
    {
      "inputs": [
        {
          "internalType": "address",
          "name": "_owner",
          "type": "address"
        }
      ],
      "name": "balanceOf",
      "outputs": [
        {
          "internalType": "uint256",
          "name": "",
          "type": "uint256"
        }
      ],
      "stateMutability": "view",
      "type": "function"
    },
    {
      "inputs": [
        {
          "internalType": "uint256",
          "name": "_tokenId",
          "type": "uint256"
        }
      ],
      "name": "tokenOf",
      "outputs": [
        {
          "internalType": "address",
          "name": "",
          "type": "address"
        }
      ],
      "stateMutability": "view",
      "type": "function"
    }
  ],
  "bytecode": "0x608060405234801561001057600080fd5b50610224806100206000396000f3fe608060405234801561001057600080fd5b50600436106100365760003560e01c806370a082311461003b578063ea78803f14610064575b600080fd5b61004e61004936600461010c565b610084565b60405161005b91906101e5565b60405180910390f35b61007761007236600461013a565b6100d1565b60405161005b9190610152565b60006001600160a01b0382166100b55760405162461bcd60e51b81526004016100ac9061019d565b60405180910390fd5b506001600160a01b031660009081526001602052604090205490565b6000818152602081905260408120546001600160a01b0316806101065760405162461bcd60e51b81526004016100ac90610166565b92915050565b60006020828403121561011d578081fd5b81356001600160a01b0381168114610133578182fd5b9392505050565b60006020828403121561014b578081fd5b5035919050565b6001600160a01b0391909116815260200190565b60208082526017908201527f546f6b656e20496420646f65736e277420657869737473000000000000000000604082015260600190565b60208082526028908201527f556e61626c6520746f2066696e6420612062616c616e6365206f66207a65726f604082015267206164647265737360c01b606082015260800190565b9081526020019056fea2646970667358221220e5628ef20501645df460df88940233590c6b5984ec9e3bf8f02c4db69a5fdef064736f6c63430008000033",
  "immutableReferences": {},
  "source": "// SPDX-License-Identifier: MIT\r\npragma solidity ^0.8.0;\r\n\r\n    /*\r\n        building out the minting function\r\n        a. nft point to an address\r\n        b. keep track of the token ids\r\n        c. keep track of token owner addresses to token ids\r\n        d. keep track of how many tokens an owner address has\r\n        e. create an event that emits a transfer log - contract address. where it being minted to, the id \r\n    */\r\n\r\ncontract ERC721 {\r\n\r\n    event Transfer(\r\n        address indexed from, \r\n        address indexed to, \r\n        uint256 indexed tokenId);\r\n\r\n    // mapping in solidity creates a hash table of key pair values\r\n\r\n    // Mapping from token id to the owner \r\n    mapping(uint256 => address) private _tokenOwner;\r\n\r\n    // Mapping from owner to number of owned tokens\r\n    mapping(address => uint256) private _OwnedTokensCount;\r\n\r\n    function balanceOf(address _owner) public view returns(uint256) {\r\n        require(_owner != address(0), 'Unable to find a balance of zero address');\r\n        return _OwnedTokensCount[_owner];\r\n    } \r\n\r\n    function tokenOf(uint256 _tokenId) external view returns(address) {\r\n        address owner = _tokenOwner[_tokenId];\r\n        require(owner != address(0), \"Token Id doesn't exists\");\r\n        return owner;\r\n    }\r\n\r\n    function _exists(uint256 tokenId) internal view returns(bool){\r\n        // setting the address of nft owner to check the mapping\r\n        // of the address from tokenOwner at the tokenId\r\n        address owner = _tokenOwner[tokenId];\r\n        // return truthiness that address is not zero\r\n        return owner != address(0);\r\n        // If the owner is NOT the zero address, it means the token exists\r\n        // If the owner IS the zero address, it means the token has not been minted or has been burned\r\n    }\r\n\r\n    function _mint(address to, uint256 tokenId) internal {\r\n        // require that the mint address isn't 0\r\n        require(to != address(0), 'ERC721: minting to the zero address');\r\n        // In Solidity, address(0) represents an unassigned or empty address\r\n        // require that the token has not already been minted\r\n        require(!_exists(tokenId), 'ERC721: token already minted');\r\n        // if the address is zero, it means ti had not been minted\r\n        // we are adding a new address with a token id for minting\r\n        _tokenOwner[tokenId] = to;\r\n        // keeping track of each address that is minting and adding one to the count\r\n        _OwnedTokensCount[to] += 1;\r\n    \r\n        emit Transfer(address(0), to, tokenId);\r\n    }\r\n}",
  "sourcePath": "C:\\projects\\Blockchain\\NFTMarketplace\\nft-marketplace-starter-kit\\src\\contracts\\ERC721.sol",
  "compiler": {
    "name": "solc",
    "version": "0.8.0+commit.c7dfd78e.Emscripten.clang"
  },
  "schemaVersion": "3.4.16",
  "updatedAt": "2024-12-18T23:46:42.174Z",
  "devdoc": {
    "kind": "dev",
    "methods": {},
    "version": 1
  },
  "userdoc": {
    "kind": "user",
    "methods": {},
    "version": 1
  }
}