{
  "contractName": "ERC721Metadata",
  "abi": [
    {
      "inputs": [
        {
          "internalType": "string",
          "name": "named",
          "type": "string"
        },
        {
          "internalType": "string",
          "name": "symbolified",
          "type": "string"
        }
      ],
      "stateMutability": "nonpayable",
      "type": "constructor"
    },
    {
      "inputs": [],
      "name": "name",
      "outputs": [
        {
          "internalType": "string",
          "name": "",
          "type": "string"
        }
      ],
      "stateMutability": "view",
      "type": "function"
    },
    {
      "inputs": [],
      "name": "symbol",
      "outputs": [
        {
          "internalType": "string",
          "name": "",
          "type": "string"
        }
      ],
      "stateMutability": "view",
      "type": "function"
    }
  ],
  "bytecode": "0x608060405234801561001057600080fd5b5060405161041d38038061041d83398101604081905261002f91610197565b815161004290600090602085019061005e565b50805161005690600190602084019061005e565b505050610248565b82805461006a906101f7565b90600052602060002090601f01602090048101928261008c57600085556100d2565b82601f106100a557805160ff19168380011785556100d2565b828001600101855582156100d2579182015b828111156100d25782518255916020019190600101906100b7565b506100de9291506100e2565b5090565b5b808211156100de57600081556001016100e3565b600082601f830112610107578081fd5b81516001600160401b038082111561012157610121610232565b6040516020601f8401601f191682018101838111838210171561014657610146610232565b604052838252858401810187101561015c578485fd5b8492505b8383101561017d5785830181015182840182015291820191610160565b8383111561018d57848185840101525b5095945050505050565b600080604083850312156101a9578182fd5b82516001600160401b03808211156101bf578384fd5b6101cb868387016100f7565b935060208501519150808211156101e0578283fd5b506101ed858286016100f7565b9150509250929050565b60028104600182168061020b57607f821691505b6020821081141561022c57634e487b7160e01b600052602260045260246000fd5b50919050565b634e487b7160e01b600052604160045260246000fd5b6101c6806102576000396000f3fe608060405234801561001057600080fd5b50600436106100365760003560e01c806306fdde031461003b57806395d89b4114610059575b600080fd5b610043610061565b6040516100509190610102565b60405180910390f35b6100436100f3565b60606000805461007090610155565b80601f016020809104026020016040519081016040528092919081815260200182805461009c90610155565b80156100e95780601f106100be576101008083540402835291602001916100e9565b820191906000526020600020905b8154815290600101906020018083116100cc57829003601f168201915b5050505050905090565b60606001805461007090610155565b6000602080835283518082850152825b8181101561012e57858101830151858201604001528201610112565b8181111561013f5783604083870101525b50601f01601f1916929092016040019392505050565b60028104600182168061016957607f821691505b6020821081141561018a57634e487b7160e01b600052602260045260246000fd5b5091905056fea2646970667358221220391ee7365dd97de87ee1754a1434ced9e758a262983d35b4d034f1652f3c95d964736f6c63430008000033",
  "immutableReferences": {},
  "source": "// SPDX-License-Identifier: MIT\r\npragma solidity ^0.8.0;\r\n\r\ncontract ERC721Metadata {\r\n\r\n    string private _name;\r\n    string private _symbol;\r\n\r\n    constructor(string memory named, string memory symbolified) {\r\n        _name = named;\r\n        _symbol = symbolified;\r\n    }\r\n\r\n    function name() external view returns(string memory) {\r\n        return _name;\r\n    }\r\n\r\n    function symbol() external view returns(string memory) {\r\n        return _symbol;\r\n    }\r\n\r\n}\r\n\r\n",
  "sourcePath": "C:\\projects\\Blockchain\\NFTMarketplace\\nft-marketplace-starter-kit\\src\\contracts\\ERC721Metadata.sol",
  "compiler": {
    "name": "solc",
    "version": "0.8.0+commit.c7dfd78e.Emscripten.clang"
  },
  "schemaVersion": "3.4.16",
  "updatedAt": "2024-12-17T22:14:01.784Z",
  "devdoc": {
    "kind": "dev",
    "methods": {},
    "version": 1
  },
  "userdoc": {
    "kind": "user",
    "methods": {},
    "version": 1
  }
}