{
  "contractName": "ERC721",
  "abi": [
    {
      "anonymous": false,
      "inputs": [
        {
          "indexed": true,
          "internalType": "address",
          "name": "from",
          "type": "address"
        },
        {
          "indexed": true,
          "internalType": "address",
          "name": "to",
          "type": "address"
        },
        {
          "indexed": true,
          "internalType": "uint256",
          "name": "tokenId",
          "type": "uint256"
        }
      ],
      "name": "Transfer",
      "type": "event"
    },
    {
      "inputs": [
        {
          "internalType": "address",
          "name": "_owner",
          "type": "address"
        }
      ],
      "name": "balanceOf",
      "outputs": [
        {
          "internalType": "uint256",
          "name": "",
          "type": "uint256"
        }
      ],
      "stateMutability": "view",
      "type": "function"
    },
    {
      "inputs": [
        {
          "internalType": "uint256",
          "name": "_tokenId",
          "type": "uint256"
        }
      ],
      "name": "ownerOf",
      "outputs": [
        {
          "internalType": "address",
          "name": "",
          "type": "address"
        }
      ],
      "stateMutability": "view",
      "type": "function"
    },
    {
      "inputs": [
        {
          "internalType": "address",
          "name": "_from",
          "type": "address"
        },
        {
          "internalType": "address",
          "name": "_to",
          "type": "address"
        },
        {
          "internalType": "uint256",
          "name": "_tokenId",
          "type": "uint256"
        }
      ],
      "name": "transferFrom",
      "outputs": [],
      "stateMutability": "nonpayable",
      "type": "function"
    }
  ],
  "bytecode": "0x608060405234801561001057600080fd5b5061049a806100206000396000f3fe608060405234801561001057600080fd5b50600436106100415760003560e01c806323b872dd146100465780636352211e1461005b57806370a0823114610084575b600080fd5b610059610054366004610291565b6100a4565b005b61006e6100693660046102cc565b6100b4565b60405161007b91906102e4565b60405180910390f35b610097610092366004610270565b6100fa565b60405161007b9190610416565b6100af83838361013e565b505050565b6000818152602081905260408120546001600160a01b0316806100f25760405162461bcd60e51b81526004016100e9906102f8565b60405180910390fd5b90505b919050565b60006001600160a01b0382166101225760405162461bcd60e51b81526004016100e99061037a565b506001600160a01b031660009081526001602052604090205490565b6001600160a01b0382166101645760405162461bcd60e51b81526004016100e99061032f565b826001600160a01b0316610177826100b4565b6001600160a01b03161461019d5760405162461bcd60e51b81526004016100e9906103c2565b6001600160a01b038316600090815260016020819052604082208054919290916101c8908490610437565b90915550506001600160a01b038216600090815260016020819052604082208054919290916101f890849061041f565b909155505060008181526020819052604080822080546001600160a01b0319166001600160a01b0386811691821790925591518493918716917fddf252ad1be2c89b69c2b068fc378daa952ba7f163c4a11628f55a4df523b3ef91a4505050565b80356001600160a01b03811681146100f557600080fd5b600060208284031215610281578081fd5b61028a82610259565b9392505050565b6000806000606084860312156102a5578182fd5b6102ae84610259565b92506102bc60208501610259565b9150604084013590509250925092565b6000602082840312156102dd578081fd5b5035919050565b6001600160a01b0391909116815260200190565b60208082526017908201527f546f6b656e20496420646f65736e277420657869737473000000000000000000604082015260600190565b6020808252602b908201527f4572726f72202d20455243373231205472616e7366657220746f20746865207a60408201526a65726f206164647265737360a81b606082015260800190565b60208082526028908201527f556e61626c6520746f2066696e6420612062616c616e6365206f66207a65726f604082015267206164647265737360c01b606082015260800190565b60208082526034908201527f547279696e6720746f207472616e73666572206120746f6b656e20746865206160408201527364647265737320646f6573206e6f74206f776e2160601b606082015260800190565b90815260200190565b600082198211156104325761043261044e565b500190565b6000828210156104495761044961044e565b500390565b634e487b7160e01b600052601160045260246000fdfea2646970667358221220b606a8467b1ccabaf70984af9d879a0e44fb72f70f4716d36acb53a323d3a56f64736f6c63430008000033",
  "immutableReferences": {},
  "source": "// SPDX-License-Identifier: MIT\r\npragma solidity ^0.8.0;\r\n\r\n    /*\r\n        building out the minting function\r\n        a. nft point to an address\r\n        b. keep track of the token ids\r\n        c. keep track of token owner addresses to token ids\r\n        d. keep track of how many tokens an owner address has\r\n        e. create an event that emits a transfer log - contract address. where it being minted to, the id \r\n    */\r\n\r\ncontract ERC721 {\r\n\r\n    event Transfer(\r\n        address indexed from, \r\n        address indexed to, \r\n        uint256 indexed tokenId);\r\n\r\n    // mapping in solidity creates a hash table of key pair values\r\n\r\n    // Mapping from token id to the owner \r\n    mapping(uint256 => address) private _tokenOwner;\r\n\r\n    // Mapping from owner to number of owned tokens\r\n    mapping(address => uint256) private _OwnedTokensCount;\r\n\r\n    // Mapping from token id to approved addresses\r\n    mapping(uint256 => address) private _tokenApprovals;\r\n\r\n    function balanceOf(address _owner) public view returns(uint256) {\r\n        require(_owner != address(0), 'Unable to find a balance of zero address');\r\n        return _OwnedTokensCount[_owner];\r\n    } \r\n\r\n    function ownerOf(uint256 _tokenId) public view returns(address) {\r\n        address owner = _tokenOwner[_tokenId];\r\n        require(owner != address(0), \"Token Id doesn't exists\");\r\n        return owner;\r\n    }\r\n\r\n    function _exists(uint256 tokenId) internal view returns(bool){\r\n        // setting the address of nft owner to check the mapping\r\n        // of the address from tokenOwner at the tokenId\r\n        address owner = _tokenOwner[tokenId];\r\n        // return truthiness that address is not zero\r\n        return owner != address(0);\r\n        // If the owner is NOT the zero address, it means the token exists\r\n        // If the owner IS the zero address, it means the token has not been minted or has been burned\r\n    }\r\n\r\n    function _mint(address to, uint256 tokenId) internal virtual {\r\n        // require that the mint address isn't 0\r\n        require(to != address(0), 'ERC721: minting to the zero address');\r\n        // In Solidity, address(0) represents an unassigned or empty address\r\n        // require that the token has not already been minted\r\n        require(!_exists(tokenId), 'ERC721: token already minted');\r\n        // if the address is zero, it means ti had not been minted\r\n        // we are adding a new address with a token id for minting\r\n        _tokenOwner[tokenId] = to;\r\n        // keeping track of each address that is minting and adding one to the count\r\n        _OwnedTokensCount[to] += 1;\r\n    \r\n        emit Transfer(address(0), to, tokenId);\r\n    }\r\n\r\n    function _transferFrom(address _from, address _to, uint256 _tokenId) internal {\r\n\r\n        require(_to != address(0), 'Error - ERC721 Transfer to the zero address');\r\n        require(ownerOf(_tokenId) == _from, 'Trying to transfer a token the address does not own!');\r\n\r\n        _OwnedTokensCount[_from] -= 1;\r\n        _OwnedTokensCount[_to] += 1;\r\n        _tokenOwner[_tokenId] = _to;\r\n\r\n        emit Transfer(_from, _to, _tokenId);\r\n    }\r\n\r\n\r\n    function transferFrom(address _from, address _to, uint256 _tokenId) public {\r\n        _transferFrom(_from, _to, _tokenId);\r\n    }\r\n\r\n}",
  "sourcePath": "C:\\projects\\Blockchain\\NFTMarketplace\\nft-marketplace-starter-kit\\src\\contracts\\ERC721.sol",
  "compiler": {
    "name": "solc",
    "version": "0.8.0+commit.c7dfd78e.Emscripten.clang"
  },
  "schemaVersion": "3.4.16",
  "updatedAt": "2025-02-07T07:51:36.386Z",
  "devdoc": {
    "kind": "dev",
    "methods": {},
    "version": 1
  },
  "userdoc": {
    "kind": "user",
    "methods": {},
    "version": 1
  }
}