{
  "contractName": "ERC721Enumerable",
  "abi": [
    {
      "anonymous": false,
      "inputs": [
        {
          "indexed": true,
          "internalType": "address",
          "name": "_owner",
          "type": "address"
        },
        {
          "indexed": true,
          "internalType": "address",
          "name": "_approved",
          "type": "address"
        },
        {
          "indexed": true,
          "internalType": "uint256",
          "name": "_tokenId",
          "type": "uint256"
        }
      ],
      "name": "Approval",
      "type": "event"
    },
    {
      "anonymous": false,
      "inputs": [
        {
          "indexed": true,
          "internalType": "address",
          "name": "_from",
          "type": "address"
        },
        {
          "indexed": true,
          "internalType": "address",
          "name": "_to",
          "type": "address"
        },
        {
          "indexed": true,
          "internalType": "uint256",
          "name": "_tokenId",
          "type": "uint256"
        }
      ],
      "name": "Transfer",
      "type": "event"
    },
    {
      "inputs": [
        {
          "internalType": "address",
          "name": "_to",
          "type": "address"
        },
        {
          "internalType": "uint256",
          "name": "tokenId",
          "type": "uint256"
        }
      ],
      "name": "approve",
      "outputs": [],
      "stateMutability": "nonpayable",
      "type": "function"
    },
    {
      "inputs": [
        {
          "internalType": "address",
          "name": "_owner",
          "type": "address"
        }
      ],
      "name": "balanceOf",
      "outputs": [
        {
          "internalType": "uint256",
          "name": "",
          "type": "uint256"
        }
      ],
      "stateMutability": "view",
      "type": "function"
    },
    {
      "inputs": [
        {
          "internalType": "uint256",
          "name": "_tokenId",
          "type": "uint256"
        }
      ],
      "name": "ownerOf",
      "outputs": [
        {
          "internalType": "address",
          "name": "",
          "type": "address"
        }
      ],
      "stateMutability": "view",
      "type": "function"
    },
    {
      "inputs": [
        {
          "internalType": "bytes4",
          "name": "interfaceID",
          "type": "bytes4"
        }
      ],
      "name": "supportsInterface",
      "outputs": [
        {
          "internalType": "bool",
          "name": "",
          "type": "bool"
        }
      ],
      "stateMutability": "view",
      "type": "function"
    },
    {
      "inputs": [
        {
          "internalType": "address",
          "name": "_from",
          "type": "address"
        },
        {
          "internalType": "address",
          "name": "_to",
          "type": "address"
        },
        {
          "internalType": "uint256",
          "name": "_tokenId",
          "type": "uint256"
        }
      ],
      "name": "transferFrom",
      "outputs": [],
      "stateMutability": "nonpayable",
      "type": "function"
    },
    {
      "inputs": [
        {
          "internalType": "uint256",
          "name": "index",
          "type": "uint256"
        }
      ],
      "name": "tokenByIndex",
      "outputs": [
        {
          "internalType": "uint256",
          "name": "",
          "type": "uint256"
        }
      ],
      "stateMutability": "view",
      "type": "function"
    },
    {
      "inputs": [
        {
          "internalType": "address",
          "name": "owner",
          "type": "address"
        },
        {
          "internalType": "uint256",
          "name": "index",
          "type": "uint256"
        }
      ],
      "name": "tokenOfOwnerByIndex",
      "outputs": [
        {
          "internalType": "uint256",
          "name": "",
          "type": "uint256"
        }
      ],
      "stateMutability": "view",
      "type": "function"
    },
    {
      "inputs": [],
      "name": "totalSupply",
      "outputs": [
        {
          "internalType": "uint256",
          "name": "",
          "type": "uint256"
        }
      ],
      "stateMutability": "view",
      "type": "function"
    }
  ],
  "bytecode": "0x608060405234801561001057600080fd5b5061003a7f01ffc9a7a5cef8baa21ed3c5c0d7e23accb804b619e9333b597f47a0d84076e261003f565b6100ce565b6001600160e01b031980821614156100725760405162461bcd60e51b815260040161006990610097565b60405180910390fd5b6001600160e01b0319166000908152602081905260409020805460ff19166001179055565b60208082526019908201527f496e76616c696420696e74657266616365207265717565737400000000000000604082015260600190565b6108f5806100dd6000396000f3fe608060405234801561001057600080fd5b50600436106100885760003560e01c80632f745c591161005b5780632f745c59146100f35780634f6ccce7146101065780636352211e1461011957806370a082311461013957610088565b806301ffc9a71461008d578063095ea7b3146100b657806318160ddd146100cb57806323b872dd146100e0575b600080fd5b6100a061009b3660046105cb565b61014c565b6040516100ad919061061f565b60405180910390f35b6100c96100c43660046105a2565b61016f565b005b6100d361023b565b6040516100ad9190610871565b6100c96100ee366004610567565b610241565b6100d36101013660046105a2565b610264565b6100d36101143660046105f3565b6102d8565b61012c6101273660046105f3565b610333565b6040516100ad919061060b565b6100d3610147366004610546565b61036e565b6001600160e01b0319811660009081526020819052604090205460ff165b919050565b600061017a82610333565b9050806001600160a01b0316836001600160a01b031614156101b75760405162461bcd60e51b81526004016101ae9061062a565b60405180910390fd5b336001600160a01b038216146101df5760405162461bcd60e51b81526004016101ae9061075b565b60008281526003602052604080822080546001600160a01b0319166001600160a01b0387811691821790925591518593918516917f8c5be1e5ebec7d5bd14f71427d1e84f3dd0314c0f7b2291e5b200ac8c7c3b92591a4505050565b60045490565b61024b33826103b2565b61025457600080fd5b61025f8383836103fb565b505050565b600061026f8361036e565b821061028d5760405162461bcd60e51b81526004016101ae906106d9565b6001600160a01b03831660009081526006602052604090208054839081106102c557634e487b7160e01b600052603260045260246000fd5b9060005260206000200154905092915050565b60006102e261023b565b82106103005760405162461bcd60e51b81526004016101ae906106a2565b6004828154811061032157634e487b7160e01b600052603260045260246000fd5b90600052602060002001549050919050565b6000818152600160205260408120546001600160a01b0316806103685760405162461bcd60e51b81526004016101ae9061066b565b92915050565b60006001600160a01b0382166103965760405162461bcd60e51b81526004016101ae906107a7565b506001600160a01b031660009081526002602052604090205490565b60006103bd82610512565b6103d95760405162461bcd60e51b81526004016101ae90610843565b60006103e483610333565b6001600160a01b0385811691161491505092915050565b6001600160a01b0382166104215760405162461bcd60e51b81526004016101ae90610710565b826001600160a01b031661043482610333565b6001600160a01b03161461045a5760405162461bcd60e51b81526004016101ae906107ef565b6001600160a01b0383166000908152600260205260408120805460019290610483908490610892565b90915550506001600160a01b03821660009081526002602052604081208054600192906104b190849061087a565b909155505060008181526001602052604080822080546001600160a01b0319166001600160a01b0386811691821790925591518493918716917fddf252ad1be2c89b69c2b068fc378daa952ba7f163c4a11628f55a4df523b3ef91a4505050565b6000908152600160205260409020546001600160a01b0316151590565b80356001600160a01b038116811461016a57600080fd5b600060208284031215610557578081fd5b6105608261052f565b9392505050565b60008060006060848603121561057b578182fd5b6105848461052f565b92506105926020850161052f565b9150604084013590509250925092565b600080604083850312156105b4578182fd5b6105bd8361052f565b946020939093013593505050565b6000602082840312156105dc578081fd5b81356001600160e01b031981168114610560578182fd5b600060208284031215610604578081fd5b5035919050565b6001600160a01b0391909116815260200190565b901515815260200190565b60208082526021908201527f4572726f72202d20617070726f76616c20746f2063757272656e74206f776e656040820152603960f91b606082015260800190565b60208082526017908201527f546f6b656e20496420646f65736e277420657869737473000000000000000000604082015260600190565b6020808252601e908201527f676c6f62616c20696e646578206973206f7574206f6620626f756e6473210000604082015260600190565b6020808252601d908201527f6f776e657220696e646578206973206f7574206f6620626f756e647321000000604082015260600190565b6020808252602b908201527f4572726f72202d20455243373231205472616e7366657220746f20746865207a60408201526a65726f206164647265737360a81b606082015260800190565b6020808252602c908201527f43757272656e742063616c6c6572206973206e6f7420746865206f776e65722060408201526b37b3103a3432903a37b5b2b760a11b606082015260800190565b60208082526028908201527f556e61626c6520746f2066696e6420612062616c616e6365206f66207a65726f604082015267206164647265737360c01b606082015260800190565b60208082526034908201527f547279696e6720746f207472616e73666572206120746f6b656e20746865206160408201527364647265737320646f6573206e6f74206f776e2160601b606082015260800190565b6020808252601490820152731d1bdad95b88191bd95cc81b9bdd08195e1a5cdd60621b604082015260600190565b90815260200190565b6000821982111561088d5761088d6108a9565b500190565b6000828210156108a4576108a46108a9565b500390565b634e487b7160e01b600052601160045260246000fdfea26469706673582212200bcd503f0f09b41150eb5c11e2f3ecfb9613066f490d5ed18f0f5bdaf8ee14b464736f6c63430008000033",
  "immutableReferences": {},
  "source": "// SPDX-License-Identifier: MIT\r\npragma solidity ^0.8.0;\r\n\r\nimport './ERC721.sol';\r\n\r\ncontract ERC721Enumerable is ERC721 {\r\n\r\n    uint256[] private _allTokens;\r\n\r\n    // mapping from tokenId to position in _allTokens array\r\n    mapping(uint256 => uint256) private _allTokensIndex;\r\n    // mapping of owner to list of all owner token ids\r\n    mapping(address => uint256[]) private _ownedTokens; \r\n    // mapping from token ID index of the owner tokens list\r\n    mapping(uint256 => uint256) private _ownedTokensIndex;\r\n\r\n    \r\n    // function tokenOfOwnerByIndex(address _owner, uint256 _index) external view returns (uint256);\r\n\r\n    function _mint(address to, uint256 tokenId) internal override(ERC721) {\r\n        super._mint(to, tokenId);\r\n        // add tokens to the owner & add to tokens to our totalsupply - to allTokens\r\n        _addTokensToAllTokenEnumeration(tokenId);\r\n        _addTokensToOwnerEnumeration(to, tokenId);\r\n    }\r\n\r\n    // add tokens to the _allTokens array and set the position of the tokens index\r\n    function _addTokensToAllTokenEnumeration(uint256 tokenId) private {\r\n        _allTokensIndex[tokenId] = _allTokens.length;\r\n        _allTokens.push(tokenId);\r\n    }\r\n\r\n    function _addTokensToOwnerEnumeration(address to, uint256 tokenId) private {\r\n        // 1. add address and token id to the _ownedTokens\r\n        // 2. ownedTokensIndex tokenId set to address of ownedTokens position\r\n        // 3. we want to execute the function with minting\r\n        _ownedTokensIndex[tokenId] = _ownedTokens[to].length;\r\n        _ownedTokens[to].push(tokenId);\r\n\r\n    }\r\n\r\n    // two functions - one that returns tokenByIndex and\r\n    // another one that returns tokenOfOwnerByIndex\r\n\r\n    function tokenByIndex(uint256 index) public view returns(uint256) {\r\n        // make sure that the index is not out of bounds of the total supply\r\n        require(index < totalSupply(), 'global index is out of bounds!');\r\n        return _allTokens[index];\r\n    }\r\n\r\n    function tokenOfOwnerByIndex(address owner, uint index) public view returns(uint256) {\r\n        require(index < balanceOf(owner), 'owner index is out of bounds!');\r\n        return _ownedTokens[owner][index];\r\n    }\r\n\r\n    // return the total supply of the _allTokens array\r\n    function totalSupply() public view returns(uint256) {\r\n        return _allTokens.length;\r\n    }\r\n\r\n\r\n}\r\n",
  "sourcePath": "C:\\projects\\Blockchain\\NFTMarketplace\\nft-marketplace-starter-kit\\src\\contracts\\ERC721Enumerable.sol",
  "compiler": {
    "name": "solc",
    "version": "0.8.0+commit.c7dfd78e.Emscripten.clang"
  },
  "schemaVersion": "3.4.16",
  "updatedAt": "2025-02-10T03:25:40.022Z",
  "devdoc": {
    "kind": "dev",
    "methods": {
      "supportsInterface(bytes4)": {
        "details": "Interface identification is specified in ERC-165. This function  uses less than 30,000 gas.",
        "params": {
          "interfaceID": "The interface identifier, as specified in ERC-165"
        },
        "returns": {
          "_0": "`true` if the contract implements `interfaceID` and  `interfaceID` is not 0xffffffff, `false` otherwise"
        }
      }
    },
    "version": 1
  },
  "userdoc": {
    "kind": "user",
    "methods": {
      "supportsInterface(bytes4)": {
        "notice": "Query if a contract implements an interface"
      }
    },
    "version": 1
  }
}