{
  "contractName": "Kryptobird",
  "abi": [
    {
      "inputs": [],
      "stateMutability": "nonpayable",
      "type": "constructor"
    },
    {
      "inputs": [],
      "name": "name",
      "outputs": [
        {
          "internalType": "string",
          "name": "",
          "type": "string"
        }
      ],
      "stateMutability": "view",
      "type": "function",
      "constant": true
    },
    {
      "inputs": [],
      "name": "symbol",
      "outputs": [
        {
          "internalType": "string",
          "name": "",
          "type": "string"
        }
      ],
      "stateMutability": "view",
      "type": "function",
      "constant": true
    }
  ],
  "bytecode": "0x608060405234801561001057600080fd5b50604080518082018252600a81526912dc9e5c1d1bd09a5c9960b21b60208083019182528351808501909452600684526525a124a9222d60d11b9084015281519192918391839161006391600091610081565b508051610077906001906020840190610081565b5050505050610155565b82805461008d9061011a565b90600052602060002090601f0160209004810192826100af57600085556100f5565b82601f106100c857805160ff19168380011785556100f5565b828001600101855582156100f5579182015b828111156100f55782518255916020019190600101906100da565b50610101929150610105565b5090565b5b808211156101015760008155600101610106565b60028104600182168061012e57607f821691505b6020821081141561014f57634e487b7160e01b600052602260045260246000fd5b50919050565b6101c6806101646000396000f3fe608060405234801561001057600080fd5b50600436106100365760003560e01c806306fdde031461003b57806395d89b4114610059575b600080fd5b610043610061565b6040516100509190610102565b60405180910390f35b6100436100f3565b60606000805461007090610155565b80601f016020809104026020016040519081016040528092919081815260200182805461009c90610155565b80156100e95780601f106100be576101008083540402835291602001916100e9565b820191906000526020600020905b8154815290600101906020018083116100cc57829003601f168201915b5050505050905090565b60606001805461007090610155565b6000602080835283518082850152825b8181101561012e57858101830151858201604001528201610112565b8181111561013f5783604083870101525b50601f01601f1916929092016040019392505050565b60028104600182168061016957607f821691505b6020821081141561018a57634e487b7160e01b600052602260045260246000fd5b5091905056fea2646970667358221220e932107b20ca723b3925cfa952702eb9c0753dd8540f019f21ed309bd119e4cd64736f6c63430008000033",
  "immutableReferences": {},
  "source": "// SPDX-License-Identifier: MIT\r\npragma solidity ^0.8.0;\r\nimport './ERC721Connector.sol';\r\n\r\ncontract Kryptobird is ERC721Connector {\r\n\r\n    // the name is KryptoBird and the symbol is KBIRDZ\r\n    constructor() ERC721Connector('KryptoBird','KBIRDZ') {\r\n\r\n    }\r\n}\r\n\r\n",
  "sourcePath": "C:\\projects\\Blockchain\\NFTMarketplace\\nft-marketplace-starter-kit\\src\\contracts\\KryptoBirdz.sol",
  "compiler": {
    "name": "solc",
    "version": "0.8.0+commit.c7dfd78e.Emscripten.clang"
  },
  "schemaVersion": "3.4.7",
  "updatedAt": "2024-12-17T15:21:25.485Z",
  "networkType": "ethereum",
  "devdoc": {
    "kind": "dev",
    "methods": {},
    "version": 1
  },
  "userdoc": {
    "kind": "user",
    "methods": {},
    "version": 1
  }
}