{
  "contractName": "KryptoBird",
  "abi": [
    {
      "inputs": [],
      "stateMutability": "nonpayable",
      "type": "constructor"
    },
    {
      "anonymous": false,
      "inputs": [
        {
          "indexed": true,
          "internalType": "address",
          "name": "from",
          "type": "address"
        },
        {
          "indexed": true,
          "internalType": "address",
          "name": "to",
          "type": "address"
        },
        {
          "indexed": true,
          "internalType": "uint256",
          "name": "tokenId",
          "type": "uint256"
        }
      ],
      "name": "Transfer",
      "type": "event"
    },
    {
      "inputs": [
        {
          "internalType": "address",
          "name": "_owner",
          "type": "address"
        }
      ],
      "name": "balanceOf",
      "outputs": [
        {
          "internalType": "uint256",
          "name": "",
          "type": "uint256"
        }
      ],
      "stateMutability": "view",
      "type": "function",
      "constant": true
    },
    {
      "inputs": [
        {
          "internalType": "uint256",
          "name": "",
          "type": "uint256"
        }
      ],
      "name": "kryptoBirdz",
      "outputs": [
        {
          "internalType": "string",
          "name": "",
          "type": "string"
        }
      ],
      "stateMutability": "view",
      "type": "function",
      "constant": true
    },
    {
      "inputs": [],
      "name": "name",
      "outputs": [
        {
          "internalType": "string",
          "name": "",
          "type": "string"
        }
      ],
      "stateMutability": "view",
      "type": "function",
      "constant": true
    },
    {
      "inputs": [
        {
          "internalType": "uint256",
          "name": "_tokenId",
          "type": "uint256"
        }
      ],
      "name": "ownerOf",
      "outputs": [
        {
          "internalType": "address",
          "name": "",
          "type": "address"
        }
      ],
      "stateMutability": "view",
      "type": "function",
      "constant": true
    },
    {
      "inputs": [],
      "name": "symbol",
      "outputs": [
        {
          "internalType": "string",
          "name": "",
          "type": "string"
        }
      ],
      "stateMutability": "view",
      "type": "function",
      "constant": true
    },
    {
      "inputs": [
        {
          "internalType": "uint256",
          "name": "index",
          "type": "uint256"
        }
      ],
      "name": "tokenByIndex",
      "outputs": [
        {
          "internalType": "uint256",
          "name": "",
          "type": "uint256"
        }
      ],
      "stateMutability": "view",
      "type": "function",
      "constant": true
    },
    {
      "inputs": [
        {
          "internalType": "address",
          "name": "owner",
          "type": "address"
        },
        {
          "internalType": "uint256",
          "name": "index",
          "type": "uint256"
        }
      ],
      "name": "tokenOfOwnerByIndex",
      "outputs": [
        {
          "internalType": "uint256",
          "name": "",
          "type": "uint256"
        }
      ],
      "stateMutability": "view",
      "type": "function",
      "constant": true
    },
    {
      "inputs": [],
      "name": "totalSupply",
      "outputs": [
        {
          "internalType": "uint256",
          "name": "",
          "type": "uint256"
        }
      ],
      "stateMutability": "view",
      "type": "function",
      "constant": true
    },
    {
      "inputs": [
        {
          "internalType": "string",
          "name": "_kryptoBird",
          "type": "string"
        }
      ],
      "name": "mint",
      "outputs": [],
      "stateMutability": "nonpayable",
      "type": "function"
    }
  ],
  "bytecode": "0x608060405234801561001057600080fd5b50604080518082018252600a81526912dc9e5c1d1bd09a5c9960b21b60208083019182528351808501909452600684526525a124a9222d60d11b9084015281519192918391839161006391600091610081565b508051610077906001906020840190610081565b5050505050610155565b82805461008d9061011a565b90600052602060002090601f0160209004810192826100af57600085556100f5565b82601f106100c857805160ff19168380011785556100f5565b828001600101855582156100f5579182015b828111156100f55782518255916020019190600101906100da565b50610101929150610105565b5090565b5b808211156101015760008155600101610106565b60028104600182168061012e57607f821691505b6020821081141561014f57634e487b7160e01b600052602260045260246000fd5b50919050565b610b2e806101646000396000f3fe608060405234801561001057600080fd5b50600436106100935760003560e01c80636352211e116100665780636352211e146100f157806370a082311461011157806393ab6e561461012457806395d89b4114610137578063d85d3d271461013f57610093565b806306fdde031461009857806318160ddd146100b65780632f745c59146100cb5780634f6ccce7146100de575b600080fd5b6100a0610154565b6040516100ad919061084e565b60405180910390f35b6100be6101e6565b6040516100ad9190610a29565b6100be6100d936600461073c565b6101ec565b6100be6100ec366004610806565b610269565b6101046100ff366004610806565b6102c5565b6040516100ad919061083a565b6100be61011f36600461071b565b610300565b6100a0610132366004610806565b610344565b6100a06103f0565b61015261014d366004610765565b6103ff565b005b60606000805461016390610a91565b80601f016020809104026020016040519081016040528092919081815260200182805461018f90610a91565b80156101dc5780601f106101b1576101008083540402835291602001916101dc565b820191906000526020600020905b8154815290600101906020018083116101bf57829003601f168201915b5050505050905090565b60045490565b60006101f783610300565b821061021e5760405162461bcd60e51b815260040161021590610926565b60405180910390fd5b6001600160a01b038316600090815260066020526040902080548390811061025657634e487b7160e01b600052603260045260246000fd5b9060005260206000200154905092915050565b60006102736101e6565b82106102915760405162461bcd60e51b8152600401610215906108ef565b600482815481106102b257634e487b7160e01b600052603260045260246000fd5b906000526020600020015490505b919050565b6000818152600260205260408120546001600160a01b0316806102fa5760405162461bcd60e51b815260040161021590610881565b92915050565b60006001600160a01b0382166103285760405162461bcd60e51b81526004016102159061099e565b506001600160a01b031660009081526003602052604090205490565b6008818154811061035457600080fd5b90600052602060002001600091509050805461036f90610a91565b80601f016020809104026020016040519081016040528092919081815260200182805461039b90610a91565b80156103e85780601f106103bd576101008083540402835291602001916103e8565b820191906000526020600020905b8154815290600101906020018083116103cb57829003601f168201915b505050505081565b60606001805461016390610a91565b60098160405161040f919061081e565b9081526040519081900360200190205460ff161561043f5760405162461bcd60e51b81526004016102159061095d565b600880546001810182556000919091528151610482917ff3f7a9fe364faab93b216da50a3214154f22a0a2b415b23a84c8169e8b636ee30190602084019061066b565b5060085460009061049590600190610a4a565b90506104a133826104d7565b60016009836040516104b3919061081e565b908152604051908190036020019020805491151560ff199092169190911790555050565b6104e182826104f8565b6104ea816105cc565b6104f48282610610565b5050565b6001600160a01b03821661051e5760405162461bcd60e51b8152600401610215906109e6565b6105278161064e565b156105445760405162461bcd60e51b8152600401610215906108b8565b600081815260026020908152604080832080546001600160a01b0319166001600160a01b03871690811790915583526003909152812080546001929061058b908490610a32565b909155505060405181906001600160a01b038416906000907fddf252ad1be2c89b69c2b068fc378daa952ba7f163c4a11628f55a4df523b3ef908290a45050565b600480546000838152600560205260408120829055600182018355919091527f8a35acfbc15ff81a39ae7d344fd709f28e8600b4aa8c65c6b64bfe7fe36bd19b0155565b6001600160a01b0390911660009081526006602081815260408084208054868652600784529185208290559282526001810183559183529091200155565b6000908152600260205260409020546001600160a01b0316151590565b82805461067790610a91565b90600052602060002090601f01602090048101928261069957600085556106df565b82601f106106b257805160ff19168380011785556106df565b828001600101855582156106df579182015b828111156106df5782518255916020019190600101906106c4565b506106eb9291506106ef565b5090565b5b808211156106eb57600081556001016106f0565b80356001600160a01b03811681146102c057600080fd5b60006020828403121561072c578081fd5b61073582610704565b9392505050565b6000806040838503121561074e578081fd5b61075783610704565b946020939093013593505050565b60006020808385031215610777578182fd5b823567ffffffffffffffff8082111561078e578384fd5b818501915085601f8301126107a1578384fd5b8135818111156107b3576107b3610ae2565b604051601f8201601f19168101850183811182821017156107d6576107d6610ae2565b60405281815283820185018810156107ec578586fd5b818585018683013790810190930193909352509392505050565b600060208284031215610817578081fd5b5035919050565b60008251610830818460208701610a61565b9190910192915050565b6001600160a01b0391909116815260200190565b600060208252825180602084015261086d816040850160208701610a61565b601f01601f19169190910160400192915050565b60208082526017908201527f546f6b656e20496420646f65736e277420657869737473000000000000000000604082015260600190565b6020808252601c908201527f4552433732313a20746f6b656e20616c7265616479206d696e74656400000000604082015260600190565b6020808252601e908201527f676c6f62616c20696e646578206973206f7574206f6620626f756e6473210000604082015260600190565b6020808252601d908201527f6f776e657220696e646578206973206f7574206f6620626f756e647321000000604082015260600190565b60208082526021908201527f4572726f72202d206b727970746f4269726420616c72656164792065786973746040820152607360f81b606082015260800190565b60208082526028908201527f556e61626c6520746f2066696e6420612062616c616e6365206f66207a65726f604082015267206164647265737360c01b606082015260800190565b60208082526023908201527f4552433732313a206d696e74696e6720746f20746865207a65726f206164647260408201526265737360e81b606082015260800190565b90815260200190565b60008219821115610a4557610a45610acc565b500190565b600082821015610a5c57610a5c610acc565b500390565b60005b83811015610a7c578181015183820152602001610a64565b83811115610a8b576000848401525b50505050565b600281046001821680610aa557607f821691505b60208210811415610ac657634e487b7160e01b600052602260045260246000fd5b50919050565b634e487b7160e01b600052601160045260246000fd5b634e487b7160e01b600052604160045260246000fdfea26469706673582212201d2dcbfa60557a51a5eb53c396243cd3828c005d6058a1ae39c497973d254f9264736f6c63430008000033",
  "immutableReferences": {},
  "source": "// SPDX-License-Identifier: MIT\r\npragma solidity ^0.8.0;\r\nimport './ERC721Connector.sol';\r\n\r\ncontract KryptoBird is ERC721Connector {\r\n\r\n    // array to store our nfts\r\n    string [] public kryptoBirdz;\r\n\r\n    mapping(string => bool) _kryptoBirdzExists;\r\n\r\n    function mint(string memory _kryptoBird) public {\r\n\r\n        require(!_kryptoBirdzExists[_kryptoBird], 'Error - kryptoBird already exists');\r\n\r\n        // this below method is deprecated\r\n        // uint _id = KryptoBirdz.push(_kryptoBird);\r\n        // .push no longer returns the length but a ref to the added element\r\n        kryptoBirdz.push(_kryptoBird);\r\n        uint _id = kryptoBirdz.length - 1;\r\n\r\n        _mint(msg.sender, _id);\r\n        _kryptoBirdzExists[_kryptoBird] = true;\r\n\r\n    }\r\n\r\n    // the name is KryptoBird and the symbol is KBIRDZ\r\n    constructor() ERC721Connector('KryptoBird','KBIRDZ') {\r\n\r\n    }\r\n}\r\n\r\n",
  "sourcePath": "C:\\projects\\Blockchain\\NFTMarketplace\\nft-marketplace-starter-kit\\src\\contracts\\KryptoBirdz.sol",
  "compiler": {
    "name": "solc",
    "version": "0.8.0+commit.c7dfd78e.Emscripten.clang"
  },
  "schemaVersion": "3.4.16",
  "updatedAt": "2025-02-07T05:35:02.395Z",
  "networkType": "ethereum",
  "devdoc": {
    "kind": "dev",
    "methods": {},
    "version": 1
  },
  "userdoc": {
    "kind": "user",
    "methods": {},
    "version": 1
  }
}