{
  "contractName": "KryptoBird",
  "abi": [
    {
      "inputs": [],
      "stateMutability": "nonpayable",
      "type": "constructor"
    },
    {
      "anonymous": false,
      "inputs": [
        {
          "indexed": true,
          "internalType": "address",
          "name": "from",
          "type": "address"
        },
        {
          "indexed": true,
          "internalType": "address",
          "name": "to",
          "type": "address"
        },
        {
          "indexed": true,
          "internalType": "uint256",
          "name": "tokenId",
          "type": "uint256"
        }
      ],
      "name": "Transfer",
      "type": "event"
    },
    {
      "inputs": [
        {
          "internalType": "address",
          "name": "_owner",
          "type": "address"
        }
      ],
      "name": "balanceOf",
      "outputs": [
        {
          "internalType": "uint256",
          "name": "",
          "type": "uint256"
        }
      ],
      "stateMutability": "view",
      "type": "function",
      "constant": true
    },
    {
      "inputs": [
        {
          "internalType": "uint256",
          "name": "",
          "type": "uint256"
        }
      ],
      "name": "kryptoBirdz",
      "outputs": [
        {
          "internalType": "string",
          "name": "",
          "type": "string"
        }
      ],
      "stateMutability": "view",
      "type": "function",
      "constant": true
    },
    {
      "inputs": [],
      "name": "name",
      "outputs": [
        {
          "internalType": "string",
          "name": "",
          "type": "string"
        }
      ],
      "stateMutability": "view",
      "type": "function",
      "constant": true
    },
    {
      "inputs": [],
      "name": "symbol",
      "outputs": [
        {
          "internalType": "string",
          "name": "",
          "type": "string"
        }
      ],
      "stateMutability": "view",
      "type": "function",
      "constant": true
    },
    {
      "inputs": [
        {
          "internalType": "uint256",
          "name": "_tokenId",
          "type": "uint256"
        }
      ],
      "name": "tokenOf",
      "outputs": [
        {
          "internalType": "address",
          "name": "",
          "type": "address"
        }
      ],
      "stateMutability": "view",
      "type": "function",
      "constant": true
    },
    {
      "inputs": [
        {
          "internalType": "string",
          "name": "_kryptoBird",
          "type": "string"
        }
      ],
      "name": "mint",
      "outputs": [],
      "stateMutability": "nonpayable",
      "type": "function"
    }
  ],
  "bytecode": "0x608060405234801561001057600080fd5b50604080518082018252600a81526912dc9e5c1d1bd09a5c9960b21b60208083019182528351808501909452600684526525a124a9222d60d11b9084015281519192918391839161006391600091610081565b508051610077906001906020840190610081565b5050505050610155565b82805461008d9061011a565b90600052602060002090601f0160209004810192826100af57600085556100f5565b82601f106100c857805160ff19168380011785556100f5565b828001600101855582156100f5579182015b828111156100f55782518255916020019190600101906100da565b50610101929150610105565b5090565b5b808211156101015760008155600101610106565b60028104600182168061012e57607f821691505b6020821081141561014f57634e487b7160e01b600052602260045260246000fd5b50919050565b6108b5806101646000396000f3fe608060405234801561001057600080fd5b50600436106100625760003560e01c806306fdde031461006757806370a082311461008557806393ab6e56146100a557806395d89b41146100b8578063d85d3d27146100c0578063ea78803f146100d5575b600080fd5b61006f6100f5565b60405161007c9190610643565b60405180910390f35b61009861009336600461052c565b610187565b60405161007c91906107b0565b61006f6100b33660046105fb565b6101d4565b61006f610280565b6100d36100ce36600461055a565b61028f565b005b6100e86100e33660046105fb565b610367565b60405161007c919061062f565b60606000805461010490610818565b80601f016020809104026020016040519081016040528092919081815260200182805461013090610818565b801561017d5780601f106101525761010080835404028352916020019161017d565b820191906000526020600020905b81548152906001019060200180831161016057829003601f168201915b5050505050905090565b60006001600160a01b0382166101b85760405162461bcd60e51b81526004016101af90610725565b60405180910390fd5b506001600160a01b031660009081526003602052604090205490565b600481815481106101e457600080fd5b9060005260206000200160009150905080546101ff90610818565b80601f016020809104026020016040519081016040528092919081815260200182805461022b90610818565b80156102785780601f1061024d57610100808354040283529160200191610278565b820191906000526020600020905b81548152906001019060200180831161025b57829003601f168201915b505050505081565b60606001805461010490610818565b60058160405161029f9190610613565b9081526040519081900360200190205460ff16156102cf5760405162461bcd60e51b81526004016101af906106e4565b600480546001810182556000919091528151610312917f8a35acfbc15ff81a39ae7d344fd709f28e8600b4aa8c65c6b64bfe7fe36bd19b01906020840190610493565b50600454600090610325906001906107d1565b905061033133826103a2565b60016005836040516103439190610613565b908152604051908190036020019020805491151560ff199092169190911790555050565b6000818152600260205260408120546001600160a01b03168061039c5760405162461bcd60e51b81526004016101af90610676565b92915050565b6001600160a01b0382166103c85760405162461bcd60e51b81526004016101af9061076d565b6103d181610476565b156103ee5760405162461bcd60e51b81526004016101af906106ad565b600081815260026020908152604080832080546001600160a01b0319166001600160a01b0387169081179091558352600390915281208054600192906104359084906107b9565b909155505060405181906001600160a01b038416906000907fddf252ad1be2c89b69c2b068fc378daa952ba7f163c4a11628f55a4df523b3ef908290a45050565b6000908152600260205260409020546001600160a01b0316151590565b82805461049f90610818565b90600052602060002090601f0160209004810192826104c15760008555610507565b82601f106104da57805160ff1916838001178555610507565b82800160010185558215610507579182015b828111156105075782518255916020019190600101906104ec565b50610513929150610517565b5090565b5b808211156105135760008155600101610518565b60006020828403121561053d578081fd5b81356001600160a01b0381168114610553578182fd5b9392505050565b6000602080838503121561056c578182fd5b823567ffffffffffffffff80821115610583578384fd5b818501915085601f830112610596578384fd5b8135818111156105a8576105a8610869565b604051601f8201601f19168101850183811182821017156105cb576105cb610869565b60405281815283820185018810156105e1578586fd5b818585018683013790810190930193909352509392505050565b60006020828403121561060c578081fd5b5035919050565b600082516106258184602087016107e8565b9190910192915050565b6001600160a01b0391909116815260200190565b60006020825282518060208401526106628160408501602087016107e8565b601f01601f19169190910160400192915050565b60208082526017908201527f546f6b656e20496420646f65736e277420657869737473000000000000000000604082015260600190565b6020808252601c908201527f4552433732313a20746f6b656e20616c7265616479206d696e74656400000000604082015260600190565b60208082526021908201527f4572726f72202d206b727970746f4269726420616c72656164792065786973746040820152607360f81b606082015260800190565b60208082526028908201527f556e61626c6520746f2066696e6420612062616c616e6365206f66207a65726f604082015267206164647265737360c01b606082015260800190565b60208082526023908201527f4552433732313a206d696e74696e6720746f20746865207a65726f206164647260408201526265737360e81b606082015260800190565b90815260200190565b600082198211156107cc576107cc610853565b500190565b6000828210156107e3576107e3610853565b500390565b60005b838110156108035781810151838201526020016107eb565b83811115610812576000848401525b50505050565b60028104600182168061082c57607f821691505b6020821081141561084d57634e487b7160e01b600052602260045260246000fd5b50919050565b634e487b7160e01b600052601160045260246000fd5b634e487b7160e01b600052604160045260246000fdfea2646970667358221220fb8a931528731f44692e467fa687ce168d91d98d79fa73e85444b654bfe578fe64736f6c63430008000033",
  "immutableReferences": {},
  "source": "// SPDX-License-Identifier: MIT\r\npragma solidity ^0.8.0;\r\nimport './ERC721Connector.sol';\r\n\r\ncontract KryptoBird is ERC721Connector {\r\n\r\n    // array to store our nfts\r\n    string [] public kryptoBirdz;\r\n\r\n    mapping(string => bool) _kryptoBirdzExists;\r\n\r\n    function mint(string memory _kryptoBird) public {\r\n\r\n        require(!_kryptoBirdzExists[_kryptoBird], 'Error - kryptoBird already exists');\r\n\r\n        // this below method is deprecated\r\n        // uint _id = KryptoBirdz.push(_kryptoBird);\r\n        // .push no longer returns the length but a ref to the added element\r\n        kryptoBirdz.push(_kryptoBird);\r\n        uint _id = kryptoBirdz.length - 1;\r\n\r\n        _mint(msg.sender, _id);\r\n        _kryptoBirdzExists[_kryptoBird] = true;\r\n\r\n    }\r\n\r\n    // the name is KryptoBird and the symbol is KBIRDZ\r\n    constructor() ERC721Connector('KryptoBird','KBIRDZ') {\r\n\r\n    }\r\n}\r\n\r\n",
  "sourcePath": "C:\\projects\\Blockchain\\NFTMarketplace\\nft-marketplace-starter-kit\\src\\contracts\\KryptoBirdz.sol",
  "compiler": {
    "name": "solc",
    "version": "0.8.0+commit.c7dfd78e.Emscripten.clang"
  },
  "schemaVersion": "3.4.16",
  "updatedAt": "2024-12-18T23:46:45.012Z",
  "networkType": "ethereum",
  "devdoc": {
    "kind": "dev",
    "methods": {},
    "version": 1
  },
  "userdoc": {
    "kind": "user",
    "methods": {},
    "version": 1
  }
}