{
  "contractName": "KryptoBird",
  "abi": [
    {
      "inputs": [],
      "stateMutability": "nonpayable",
      "type": "constructor"
    },
    {
      "anonymous": false,
      "inputs": [
        {
          "indexed": true,
          "internalType": "address",
          "name": "from",
          "type": "address"
        },
        {
          "indexed": true,
          "internalType": "address",
          "name": "to",
          "type": "address"
        },
        {
          "indexed": true,
          "internalType": "uint256",
          "name": "tokenId",
          "type": "uint256"
        }
      ],
      "name": "Transfer",
      "type": "event"
    },
    {
      "inputs": [
        {
          "internalType": "address",
          "name": "_owner",
          "type": "address"
        }
      ],
      "name": "balanceOf",
      "outputs": [
        {
          "internalType": "uint256",
          "name": "",
          "type": "uint256"
        }
      ],
      "stateMutability": "view",
      "type": "function",
      "constant": true
    },
    {
      "inputs": [
        {
          "internalType": "uint256",
          "name": "",
          "type": "uint256"
        }
      ],
      "name": "kryptoBirdz",
      "outputs": [
        {
          "internalType": "string",
          "name": "",
          "type": "string"
        }
      ],
      "stateMutability": "view",
      "type": "function",
      "constant": true
    },
    {
      "inputs": [],
      "name": "name",
      "outputs": [
        {
          "internalType": "string",
          "name": "",
          "type": "string"
        }
      ],
      "stateMutability": "view",
      "type": "function",
      "constant": true
    },
    {
      "inputs": [
        {
          "internalType": "uint256",
          "name": "_tokenId",
          "type": "uint256"
        }
      ],
      "name": "ownerOf",
      "outputs": [
        {
          "internalType": "address",
          "name": "",
          "type": "address"
        }
      ],
      "stateMutability": "view",
      "type": "function",
      "constant": true
    },
    {
      "inputs": [],
      "name": "symbol",
      "outputs": [
        {
          "internalType": "string",
          "name": "",
          "type": "string"
        }
      ],
      "stateMutability": "view",
      "type": "function",
      "constant": true
    },
    {
      "inputs": [],
      "name": "totalSupply",
      "outputs": [
        {
          "internalType": "uint256",
          "name": "",
          "type": "uint256"
        }
      ],
      "stateMutability": "view",
      "type": "function",
      "constant": true
    },
    {
      "inputs": [
        {
          "internalType": "string",
          "name": "_kryptoBird",
          "type": "string"
        }
      ],
      "name": "mint",
      "outputs": [],
      "stateMutability": "nonpayable",
      "type": "function"
    }
  ],
  "bytecode": "0x608060405234801561001057600080fd5b50604080518082018252600a81526912dc9e5c1d1bd09a5c9960b21b60208083019182528351808501909452600684526525a124a9222d60d11b9084015281519192918391839161006391600091610081565b508051610077906001906020840190610081565b5050505050610155565b82805461008d9061011a565b90600052602060002090601f0160209004810192826100af57600085556100f5565b82601f106100c857805160ff19168380011785556100f5565b828001600101855582156100f5579182015b828111156100f55782518255916020019190600101906100da565b50610101929150610105565b5090565b5b808211156101015760008155600101610106565b60028104600182168061012e57607f821691505b6020821081141561014f57634e487b7160e01b600052602260045260246000fd5b50919050565b61092a806101646000396000f3fe608060405234801561001057600080fd5b506004361061007d5760003560e01c806370a082311161005b57806370a08231146100d557806393ab6e56146100e857806395d89b41146100fb578063d85d3d27146101035761007d565b806306fdde031461008257806318160ddd146100a05780636352211e146100b5575b600080fd5b61008a610118565b60405161009791906106b8565b60405180910390f35b6100a86101aa565b6040516100979190610825565b6100c86100c3366004610670565b6101b0565b60405161009791906106a4565b6100a86100e33660046105a1565b6101f4565b61008a6100f6366004610670565b610238565b61008a6102e4565b6101166101113660046105cf565b6102f3565b005b6060600080546101279061088d565b80601f01602080910402602001604051908101604052809291908181526020018280546101539061088d565b80156101a05780601f10610175576101008083540402835291602001916101a0565b820191906000526020600020905b81548152906001019060200180831161018357829003601f168201915b5050505050905090565b60045490565b6000818152600260205260408120546001600160a01b0316806101ee5760405162461bcd60e51b81526004016101e5906106eb565b60405180910390fd5b92915050565b60006001600160a01b03821661021c5760405162461bcd60e51b81526004016101e59061079a565b506001600160a01b031660009081526003602052604090205490565b6008818154811061024857600080fd5b9060005260206000200160009150905080546102639061088d565b80601f016020809104026020016040519081016040528092919081815260200182805461028f9061088d565b80156102dc5780601f106102b1576101008083540402835291602001916102dc565b820191906000526020600020905b8154815290600101906020018083116102bf57829003601f168201915b505050505081565b6060600180546101279061088d565b6009816040516103039190610688565b9081526040519081900360200190205460ff16156103335760405162461bcd60e51b81526004016101e590610759565b600880546001810182556000919091528151610376917ff3f7a9fe364faab93b216da50a3214154f22a0a2b415b23a84c8169e8b636ee301906020840190610508565b5060085460009061038990600190610846565b905061039533826103cb565b60016009836040516103a79190610688565b908152604051908190036020019020805491151560ff199092169190911790555050565b6103d582826103e2565b6103de816104b6565b5050565b6001600160a01b0382166104085760405162461bcd60e51b81526004016101e5906107e2565b610411816104eb565b1561042e5760405162461bcd60e51b81526004016101e590610722565b600081815260026020908152604080832080546001600160a01b0319166001600160a01b03871690811790915583526003909152812080546001929061047590849061082e565b909155505060405181906001600160a01b038416906000907fddf252ad1be2c89b69c2b068fc378daa952ba7f163c4a11628f55a4df523b3ef908290a45050565b600480546001810182556000919091527f8a35acfbc15ff81a39ae7d344fd709f28e8600b4aa8c65c6b64bfe7fe36bd19b0155565b6000908152600260205260409020546001600160a01b0316151590565b8280546105149061088d565b90600052602060002090601f016020900481019282610536576000855561057c565b82601f1061054f57805160ff191683800117855561057c565b8280016001018555821561057c579182015b8281111561057c578251825591602001919060010190610561565b5061058892915061058c565b5090565b5b80821115610588576000815560010161058d565b6000602082840312156105b2578081fd5b81356001600160a01b03811681146105c8578182fd5b9392505050565b600060208083850312156105e1578182fd5b823567ffffffffffffffff808211156105f8578384fd5b818501915085601f83011261060b578384fd5b81358181111561061d5761061d6108de565b604051601f8201601f1916810185018381118282101715610640576106406108de565b6040528181528382018501881015610656578586fd5b818585018683013790810190930193909352509392505050565b600060208284031215610681578081fd5b5035919050565b6000825161069a81846020870161085d565b9190910192915050565b6001600160a01b0391909116815260200190565b60006020825282518060208401526106d781604085016020870161085d565b601f01601f19169190910160400192915050565b60208082526017908201527f546f6b656e20496420646f65736e277420657869737473000000000000000000604082015260600190565b6020808252601c908201527f4552433732313a20746f6b656e20616c7265616479206d696e74656400000000604082015260600190565b60208082526021908201527f4572726f72202d206b727970746f4269726420616c72656164792065786973746040820152607360f81b606082015260800190565b60208082526028908201527f556e61626c6520746f2066696e6420612062616c616e6365206f66207a65726f604082015267206164647265737360c01b606082015260800190565b60208082526023908201527f4552433732313a206d696e74696e6720746f20746865207a65726f206164647260408201526265737360e81b606082015260800190565b90815260200190565b60008219821115610841576108416108c8565b500190565b600082821015610858576108586108c8565b500390565b60005b83811015610878578181015183820152602001610860565b83811115610887576000848401525b50505050565b6002810460018216806108a157607f821691505b602082108114156108c257634e487b7160e01b600052602260045260246000fd5b50919050565b634e487b7160e01b600052601160045260246000fd5b634e487b7160e01b600052604160045260246000fdfea2646970667358221220d87b2f00c3fae2dfdbbc2e553cac5fad039813cff55466400e9ed8e821154f2064736f6c63430008000033",
  "immutableReferences": {},
  "source": "// SPDX-License-Identifier: MIT\r\npragma solidity ^0.8.0;\r\nimport './ERC721Connector.sol';\r\n\r\ncontract KryptoBird is ERC721Connector {\r\n\r\n    // array to store our nfts\r\n    string [] public kryptoBirdz;\r\n\r\n    mapping(string => bool) _kryptoBirdzExists;\r\n\r\n    function mint(string memory _kryptoBird) public {\r\n\r\n        require(!_kryptoBirdzExists[_kryptoBird], 'Error - kryptoBird already exists');\r\n\r\n        // this below method is deprecated\r\n        // uint _id = KryptoBirdz.push(_kryptoBird);\r\n        // .push no longer returns the length but a ref to the added element\r\n        kryptoBirdz.push(_kryptoBird);\r\n        uint _id = kryptoBirdz.length - 1;\r\n\r\n        _mint(msg.sender, _id);\r\n        _kryptoBirdzExists[_kryptoBird] = true;\r\n\r\n    }\r\n\r\n    // the name is KryptoBird and the symbol is KBIRDZ\r\n    constructor() ERC721Connector('KryptoBird','KBIRDZ') {\r\n\r\n    }\r\n}\r\n\r\n",
  "sourcePath": "C:\\projects\\Blockchain\\NFTMarketplace\\nft-marketplace-starter-kit\\src\\contracts\\KryptoBirdz.sol",
  "compiler": {
    "name": "solc",
    "version": "0.8.0+commit.c7dfd78e.Emscripten.clang"
  },
  "schemaVersion": "3.4.16",
  "updatedAt": "2024-12-19T23:53:20.525Z",
  "networkType": "ethereum",
  "devdoc": {
    "kind": "dev",
    "methods": {},
    "version": 1
  },
  "userdoc": {
    "kind": "user",
    "methods": {},
    "version": 1
  }
}